{
  "_format": "hh3-artifact-1",
  "contractName": "BALToken",
  "sourceName": "contracts/BALToken.sol",
  "abi": [
    {
      "inputs": [
        {
          "internalType": "string",
          "name": "name_",
          "type": "string"
        },
        {
          "internalType": "string",
          "name": "symbol_",
          "type": "string"
        },
        {
          "internalType": "address",
          "name": "owner_",
          "type": "address"
        }
      ],
      "stateMutability": "nonpayable",
      "type": "constructor"
    },
    {
      "inputs": [
        {
          "internalType": "address",
          "name": "spender",
          "type": "address"
        },
        {
          "internalType": "uint256",
          "name": "allowance",
          "type": "uint256"
        },
        {
          "internalType": "uint256",
          "name": "needed",
          "type": "uint256"
        }
      ],
      "name": "ERC20InsufficientAllowance",
      "type": "error"
    },
    {
      "inputs": [
        {
          "internalType": "address",
          "name": "sender",
          "type": "address"
        },
        {
          "internalType": "uint256",
          "name": "balance",
          "type": "uint256"
        },
        {
          "internalType": "uint256",
          "name": "needed",
          "type": "uint256"
        }
      ],
      "name": "ERC20InsufficientBalance",
      "type": "error"
    },
    {
      "inputs": [
        {
          "internalType": "address",
          "name": "approver",
          "type": "address"
        }
      ],
      "name": "ERC20InvalidApprover",
      "type": "error"
    },
    {
      "inputs": [
        {
          "internalType": "address",
          "name": "receiver",
          "type": "address"
        }
      ],
      "name": "ERC20InvalidReceiver",
      "type": "error"
    },
    {
      "inputs": [
        {
          "internalType": "address",
          "name": "sender",
          "type": "address"
        }
      ],
      "name": "ERC20InvalidSender",
      "type": "error"
    },
    {
      "inputs": [
        {
          "internalType": "address",
          "name": "spender",
          "type": "address"
        }
      ],
      "name": "ERC20InvalidSpender",
      "type": "error"
    },
    {
      "inputs": [
        {
          "internalType": "address",
          "name": "owner",
          "type": "address"
        }
      ],
      "name": "OwnableInvalidOwner",
      "type": "error"
    },
    {
      "inputs": [
        {
          "internalType": "address",
          "name": "account",
          "type": "address"
        }
      ],
      "name": "OwnableUnauthorizedAccount",
      "type": "error"
    },
    {
      "anonymous": false,
      "inputs": [
        {
          "indexed": true,
          "internalType": "address",
          "name": "owner",
          "type": "address"
        },
        {
          "indexed": true,
          "internalType": "address",
          "name": "spender",
          "type": "address"
        },
        {
          "indexed": false,
          "internalType": "uint256",
          "name": "value",
          "type": "uint256"
        }
      ],
      "name": "Approval",
      "type": "event"
    },
    {
      "anonymous": false,
      "inputs": [
        {
          "indexed": true,
          "internalType": "address",
          "name": "previousOwner",
          "type": "address"
        },
        {
          "indexed": true,
          "internalType": "address",
          "name": "newOwner",
          "type": "address"
        }
      ],
      "name": "OwnershipTransferred",
      "type": "event"
    },
    {
      "anonymous": false,
      "inputs": [
        {
          "indexed": true,
          "internalType": "address",
          "name": "from",
          "type": "address"
        },
        {
          "indexed": true,
          "internalType": "address",
          "name": "to",
          "type": "address"
        },
        {
          "indexed": false,
          "internalType": "uint256",
          "name": "value",
          "type": "uint256"
        }
      ],
      "name": "Transfer",
      "type": "event"
    },
    {
      "inputs": [
        {
          "internalType": "address",
          "name": "owner",
          "type": "address"
        },
        {
          "internalType": "address",
          "name": "spender",
          "type": "address"
        }
      ],
      "name": "allowance",
      "outputs": [
        {
          "internalType": "uint256",
          "name": "",
          "type": "uint256"
        }
      ],
      "stateMutability": "view",
      "type": "function"
    },
    {
      "inputs": [
        {
          "internalType": "address",
          "name": "spender",
          "type": "address"
        },
        {
          "internalType": "uint256",
          "name": "value",
          "type": "uint256"
        }
      ],
      "name": "approve",
      "outputs": [
        {
          "internalType": "bool",
          "name": "",
          "type": "bool"
        }
      ],
      "stateMutability": "nonpayable",
      "type": "function"
    },
    {
      "inputs": [
        {
          "internalType": "address",
          "name": "account",
          "type": "address"
        }
      ],
      "name": "balanceOf",
      "outputs": [
        {
          "internalType": "uint256",
          "name": "",
          "type": "uint256"
        }
      ],
      "stateMutability": "view",
      "type": "function"
    },
    {
      "inputs": [],
      "name": "decimals",
      "outputs": [
        {
          "internalType": "uint8",
          "name": "",
          "type": "uint8"
        }
      ],
      "stateMutability": "view",
      "type": "function"
    },
    {
      "inputs": [
        {
          "internalType": "address",
          "name": "to",
          "type": "address"
        },
        {
          "internalType": "uint256",
          "name": "amount",
          "type": "uint256"
        }
      ],
      "name": "mint",
      "outputs": [],
      "stateMutability": "nonpayable",
      "type": "function"
    },
    {
      "inputs": [],
      "name": "minter",
      "outputs": [
        {
          "internalType": "address",
          "name": "",
          "type": "address"
        }
      ],
      "stateMutability": "view",
      "type": "function"
    },
    {
      "inputs": [],
      "name": "name",
      "outputs": [
        {
          "internalType": "string",
          "name": "",
          "type": "string"
        }
      ],
      "stateMutability": "view",
      "type": "function"
    },
    {
      "inputs": [],
      "name": "owner",
      "outputs": [
        {
          "internalType": "address",
          "name": "",
          "type": "address"
        }
      ],
      "stateMutability": "view",
      "type": "function"
    },
    {
      "inputs": [],
      "name": "renounceOwnership",
      "outputs": [],
      "stateMutability": "nonpayable",
      "type": "function"
    },
    {
      "inputs": [
        {
          "internalType": "address",
          "name": "_minter",
          "type": "address"
        }
      ],
      "name": "setMinter",
      "outputs": [],
      "stateMutability": "nonpayable",
      "type": "function"
    },
    {
      "inputs": [],
      "name": "symbol",
      "outputs": [
        {
          "internalType": "string",
          "name": "",
          "type": "string"
        }
      ],
      "stateMutability": "view",
      "type": "function"
    },
    {
      "inputs": [],
      "name": "totalSupply",
      "outputs": [
        {
          "internalType": "uint256",
          "name": "",
          "type": "uint256"
        }
      ],
      "stateMutability": "view",
      "type": "function"
    },
    {
      "inputs": [
        {
          "internalType": "address",
          "name": "to",
          "type": "address"
        },
        {
          "internalType": "uint256",
          "name": "value",
          "type": "uint256"
        }
      ],
      "name": "transfer",
      "outputs": [
        {
          "internalType": "bool",
          "name": "",
          "type": "bool"
        }
      ],
      "stateMutability": "nonpayable",
      "type": "function"
    },
    {
      "inputs": [
        {
          "internalType": "address",
          "name": "from",
          "type": "address"
        },
        {
          "internalType": "address",
          "name": "to",
          "type": "address"
        },
        {
          "internalType": "uint256",
          "name": "value",
          "type": "uint256"
        }
      ],
      "name": "transferFrom",
      "outputs": [
        {
          "internalType": "bool",
          "name": "",
          "type": "bool"
        }
      ],
      "stateMutability": "nonpayable",
      "type": "function"
    },
    {
      "inputs": [
        {
          "internalType": "address",
          "name": "newOwner",
          "type": "address"
        }
      ],
      "name": "transferOwnership",
      "outputs": [],
      "stateMutability": "nonpayable",
      "type": "function"
    }
  ],
  "bytecode": "0x608060405234801561000f575f5ffd5b50604051611a22380380611a2283398181016040528101906100319190610348565b808383816003908161004391906105e0565b50806004908161005391906105e0565b5050505f73ffffffffffffffffffffffffffffffffffffffff168173ffffffffffffffffffffffffffffffffffffffff16036100c6575f6040517f1e4fbdf70000000000000000000000000000000000000000000000000000000081526004016100bd91906106be565b60405180910390fd5b6100d5816100de60201b60201c565b505050506106d7565b5f60055f9054906101000a900473ffffffffffffffffffffffffffffffffffffffff1690508160055f6101000a81548173ffffffffffffffffffffffffffffffffffffffff021916908373ffffffffffffffffffffffffffffffffffffffff1602179055508173ffffffffffffffffffffffffffffffffffffffff168173ffffffffffffffffffffffffffffffffffffffff167f8be0079c531659141344cd1fd0a4f28419497f9722a3daafe3b4186f6b6457e060405160405180910390a35050565b5f604051905090565b5f5ffd5b5f5ffd5b5f5ffd5b5f5ffd5b5f601f19601f8301169050919050565b7f4e487b71000000000000000000000000000000000000000000000000000000005f52604160045260245ffd5b610200826101ba565b810181811067ffffffffffffffff8211171561021f5761021e6101ca565b5b80604052505050565b5f6102316101a1565b905061023d82826101f7565b919050565b5f67ffffffffffffffff82111561025c5761025b6101ca565b5b610265826101ba565b9050602081019050919050565b8281835e5f83830152505050565b5f61029261028d84610242565b610228565b9050828152602081018484840111156102ae576102ad6101b6565b5b6102b9848285610272565b509392505050565b5f82601f8301126102d5576102d46101b2565b5b81516102e5848260208601610280565b91505092915050565b5f73ffffffffffffffffffffffffffffffffffffffff82169050919050565b5f610317826102ee565b9050919050565b6103278161030d565b8114610331575f5ffd5b50565b5f815190506103428161031e565b92915050565b5f5f5f6060848603121561035f5761035e6101aa565b5b5f84015167ffffffffffffffff81111561037c5761037b6101ae565b5b610388868287016102c1565b935050602084015167ffffffffffffffff8111156103a9576103a86101ae565b5b6103b5868287016102c1565b92505060406103c686828701610334565b9150509250925092565b5f81519050919050565b7f4e487b71000000000000000000000000000000000000000000000000000000005f52602260045260245ffd5b5f600282049050600182168061041e57607f821691505b602082108103610431576104306103da565b5b50919050565b5f819050815f5260205f209050919050565b5f6020601f8301049050919050565b5f82821b905092915050565b5f600883026104937fffffffffffffffffffffffffffffffffffffffffffffffffffffffffffffffff82610458565b61049d8683610458565b95508019841693508086168417925050509392505050565b5f819050919050565b5f819050919050565b5f6104e16104dc6104d7846104b5565b6104be565b6104b5565b9050919050565b5f819050919050565b6104fa836104c7565b61050e610506826104e8565b848454610464565b825550505050565b5f5f905090565b610525610516565b6105308184846104f1565b505050565b5b81811015610553576105485f8261051d565b600181019050610536565b5050565b601f8211156105985761056981610437565b61057284610449565b81016020851015610581578190505b61059561058d85610449565b830182610535565b50505b505050565b5f82821c905092915050565b5f6105b85f198460080261059d565b1980831691505092915050565b5f6105d083836105a9565b9150826002028217905092915050565b6105e9826103d0565b67ffffffffffffffff811115610602576106016101ca565b5b61060c8254610407565b610617828285610557565b5f60209050601f831160018114610648575f8415610636578287015190505b61064085826105c5565b8655506106a7565b601f19841661065686610437565b5f5b8281101561067d57848901518255600182019150602085019450602081019050610658565b8683101561069a5784890151610696601f8916826105a9565b8355505b6001600288020188555050505b505050505050565b6106b88161030d565b82525050565b5f6020820190506106d15f8301846106af565b92915050565b61133e806106e45f395ff3fe608060405234801561000f575f5ffd5b50600436106100f3575f3560e01c806370a0823111610095578063a9059cbb11610064578063a9059cbb14610261578063dd62ed3e14610291578063f2fde38b146102c1578063fca3b5aa146102dd576100f3565b806370a08231146101eb578063715018a61461021b5780638da5cb5b1461022557806395d89b4114610243576100f3565b806318160ddd116100d157806318160ddd1461016357806323b872dd14610181578063313ce567146101b157806340c10f19146101cf576100f3565b806306fdde03146100f75780630754617214610115578063095ea7b314610133575b5f5ffd5b6100ff6102f9565b60405161010c9190610f29565b60405180910390f35b61011d610389565b60405161012a9190610f88565b60405180910390f35b61014d60048036038101906101489190611002565b6103ae565b60405161015a919061105a565b60405180910390f35b61016b6103d0565b6040516101789190611082565b60405180910390f35b61019b6004803603810190610196919061109b565b6103d9565b6040516101a8919061105a565b60405180910390f35b6101b9610407565b6040516101c69190611106565b60405180910390f35b6101e960048036038101906101e49190611002565b61040f565b005b6102056004803603810190610200919061111f565b6104e9565b6040516102129190611082565b60405180910390f35b61022361052e565b005b61022d610541565b60405161023a9190610f88565b60405180910390f35b61024b610569565b6040516102589190610f29565b60405180910390f35b61027b60048036038101906102769190611002565b6105f9565b604051610288919061105a565b60405180910390f35b6102ab60048036038101906102a6919061114a565b61061b565b6040516102b89190611082565b60405180910390f35b6102db60048036038101906102d6919061111f565b61069d565b005b6102f760048036038101906102f2919061111f565b610721565b005b606060038054610308906111b5565b80601f0160208091040260200160405190810160405280929190818152602001828054610334906111b5565b801561037f5780601f106103565761010080835404028352916020019161037f565b820191905f5260205f20905b81548152906001019060200180831161036257829003601f168201915b5050505050905090565b60065f9054906101000a900473ffffffffffffffffffffffffffffffffffffffff1681565b5f5f6103b861076c565b90506103c5818585610773565b600191505092915050565b5f600254905090565b5f5f6103e361076c565b90506103f0858285610785565b6103fb858585610818565b60019150509392505050565b5f6012905090565b610417610541565b73ffffffffffffffffffffffffffffffffffffffff163373ffffffffffffffffffffffffffffffffffffffff16148061049c575060065f9054906101000a900473ffffffffffffffffffffffffffffffffffffffff1673ffffffffffffffffffffffffffffffffffffffff163373ffffffffffffffffffffffffffffffffffffffff16145b6104db576040517f08c379a00000000000000000000000000000000000000000000000000000000081526004016104d290611255565b60405180910390fd5b6104e58282610908565b5050565b5f5f5f8373ffffffffffffffffffffffffffffffffffffffff1673ffffffffffffffffffffffffffffffffffffffff1681526020019081526020015f20549050919050565b610536610987565b61053f5f610a0e565b565b5f60055f9054906101000a900473ffffffffffffffffffffffffffffffffffffffff16905090565b606060048054610578906111b5565b80601f01602080910402602001604051908101604052809291908181526020018280546105a4906111b5565b80156105ef5780601f106105c6576101008083540402835291602001916105ef565b820191905f5260205f20905b8154815290600101906020018083116105d257829003601f168201915b5050505050905090565b5f5f61060361076c565b9050610610818585610818565b600191505092915050565b5f60015f8473ffffffffffffffffffffffffffffffffffffffff1673ffffffffffffffffffffffffffffffffffffffff1681526020019081526020015f205f8373ffffffffffffffffffffffffffffffffffffffff1673ffffffffffffffffffffffffffffffffffffffff1681526020019081526020015f2054905092915050565b6106a5610987565b5f73ffffffffffffffffffffffffffffffffffffffff168173ffffffffffffffffffffffffffffffffffffffff1603610715575f6040517f1e4fbdf700000000000000000000000000000000000000000000000000000000815260040161070c9190610f88565b60405180910390fd5b61071e81610a0e565b50565b610729610987565b8060065f6101000a81548173ffffffffffffffffffffffffffffffffffffffff021916908373ffffffffffffffffffffffffffffffffffffffff16021790555050565b5f33905090565b6107808383836001610ad1565b505050565b5f610790848461061b565b90507fffffffffffffffffffffffffffffffffffffffffffffffffffffffffffffffff8110156108125781811015610803578281836040517ffb8f41b20000000000000000000000000000000000000000000000000000000081526004016107fa93929190611273565b60405180910390fd5b61081184848484035f610ad1565b5b50505050565b5f73ffffffffffffffffffffffffffffffffffffffff168373ffffffffffffffffffffffffffffffffffffffff1603610888575f6040517f96c6fd1e00000000000000000000000000000000000000000000000000000000815260040161087f9190610f88565b60405180910390fd5b5f73ffffffffffffffffffffffffffffffffffffffff168273ffffffffffffffffffffffffffffffffffffffff16036108f8575f6040517fec442f050000000000000000000000000000000000000000000000000000000081526004016108ef9190610f88565b60405180910390fd5b610903838383610ca0565b505050565b5f73ffffffffffffffffffffffffffffffffffffffff168273ffffffffffffffffffffffffffffffffffffffff1603610978575f6040517fec442f0500000000000000000000000000000000000000000000000000000000815260040161096f9190610f88565b60405180910390fd5b6109835f8383610ca0565b5050565b61098f61076c565b73ffffffffffffffffffffffffffffffffffffffff166109ad610541565b73ffffffffffffffffffffffffffffffffffffffff1614610a0c576109d061076c565b6040517f118cdaa7000000000000000000000000000000000000000000000000000000008152600401610a039190610f88565b60405180910390fd5b565b5f60055f9054906101000a900473ffffffffffffffffffffffffffffffffffffffff1690508160055f6101000a81548173ffffffffffffffffffffffffffffffffffffffff021916908373ffffffffffffffffffffffffffffffffffffffff1602179055508173ffffffffffffffffffffffffffffffffffffffff168173ffffffffffffffffffffffffffffffffffffffff167f8be0079c531659141344cd1fd0a4f28419497f9722a3daafe3b4186f6b6457e060405160405180910390a35050565b5f73ffffffffffffffffffffffffffffffffffffffff168473ffffffffffffffffffffffffffffffffffffffff1603610b41575f6040517fe602df05000000000000000000000000000000000000000000000000000000008152600401610b389190610f88565b60405180910390fd5b5f73ffffffffffffffffffffffffffffffffffffffff168373ffffffffffffffffffffffffffffffffffffffff1603610bb1575f6040517f94280d62000000000000000000000000000000000000000000000000000000008152600401610ba89190610f88565b60405180910390fd5b8160015f8673ffffffffffffffffffffffffffffffffffffffff1673ffffffffffffffffffffffffffffffffffffffff1681526020019081526020015f205f8573ffffffffffffffffffffffffffffffffffffffff1673ffffffffffffffffffffffffffffffffffffffff1681526020019081526020015f20819055508015610c9a578273ffffffffffffffffffffffffffffffffffffffff168473ffffffffffffffffffffffffffffffffffffffff167f8c5be1e5ebec7d5bd14f71427d1e84f3dd0314c0f7b2291e5b200ac8c7c3b92584604051610c919190611082565b60405180910390a35b50505050565b5f73ffffffffffffffffffffffffffffffffffffffff168373ffffffffffffffffffffffffffffffffffffffff1603610cf0578060025f828254610ce491906112d5565b92505081905550610dbe565b5f5f5f8573ffffffffffffffffffffffffffffffffffffffff1673ffffffffffffffffffffffffffffffffffffffff1681526020019081526020015f2054905081811015610d79578381836040517fe450d38c000000000000000000000000000000000000000000000000000000008152600401610d7093929190611273565b60405180910390fd5b8181035f5f8673ffffffffffffffffffffffffffffffffffffffff1673ffffffffffffffffffffffffffffffffffffffff1681526020019081526020015f2081905550505b5f73ffffffffffffffffffffffffffffffffffffffff168273ffffffffffffffffffffffffffffffffffffffff1603610e05578060025f8282540392505081905550610e4f565b805f5f8473ffffffffffffffffffffffffffffffffffffffff1673ffffffffffffffffffffffffffffffffffffffff1681526020019081526020015f205f82825401925050819055505b8173ffffffffffffffffffffffffffffffffffffffff168373ffffffffffffffffffffffffffffffffffffffff167fddf252ad1be2c89b69c2b068fc378daa952ba7f163c4a11628f55a4df523b3ef83604051610eac9190611082565b60405180910390a3505050565b5f81519050919050565b5f82825260208201905092915050565b8281835e5f83830152505050565b5f601f19601f8301169050919050565b5f610efb82610eb9565b610f058185610ec3565b9350610f15818560208601610ed3565b610f1e81610ee1565b840191505092915050565b5f6020820190508181035f830152610f418184610ef1565b905092915050565b5f73ffffffffffffffffffffffffffffffffffffffff82169050919050565b5f610f7282610f49565b9050919050565b610f8281610f68565b82525050565b5f602082019050610f9b5f830184610f79565b92915050565b5f5ffd5b610fae81610f68565b8114610fb8575f5ffd5b50565b5f81359050610fc981610fa5565b92915050565b5f819050919050565b610fe181610fcf565b8114610feb575f5ffd5b50565b5f81359050610ffc81610fd8565b92915050565b5f5f6040838503121561101857611017610fa1565b5b5f61102585828601610fbb565b925050602061103685828601610fee565b9150509250929050565b5f8115159050919050565b61105481611040565b82525050565b5f60208201905061106d5f83018461104b565b92915050565b61107c81610fcf565b82525050565b5f6020820190506110955f830184611073565b92915050565b5f5f5f606084860312156110b2576110b1610fa1565b5b5f6110bf86828701610fbb565b93505060206110d086828701610fbb565b92505060406110e186828701610fee565b9150509250925092565b5f60ff82169050919050565b611100816110eb565b82525050565b5f6020820190506111195f8301846110f7565b92915050565b5f6020828403121561113457611133610fa1565b5b5f61114184828501610fbb565b91505092915050565b5f5f604083850312156111605761115f610fa1565b5b5f61116d85828601610fbb565b925050602061117e85828601610fbb565b9150509250929050565b7f4e487b71000000000000000000000000000000000000000000000000000000005f52602260045260245ffd5b5f60028204905060018216806111cc57607f821691505b6020821081036111df576111de611188565b5b50919050565b7f42414c546f6b656e3a2063616c6c6572206e6f74206f776e6572206f72206d695f8201527f6e74657200000000000000000000000000000000000000000000000000000000602082015250565b5f61123f602483610ec3565b915061124a826111e5565b604082019050919050565b5f6020820190508181035f83015261126c81611233565b9050919050565b5f6060820190506112865f830186610f79565b6112936020830185611073565b6112a06040830184611073565b949350505050565b7f4e487b71000000000000000000000000000000000000000000000000000000005f52601160045260245ffd5b5f6112df82610fcf565b91506112ea83610fcf565b9250828201905080821115611302576113016112a8565b5b9291505056fea264697066735822122052358353b2895c8cf825c9c4b5fffd76e6cfef329c0d058804e3267e349b0b5364736f6c634300081c0033",
  "linkReferences": {},
  "deployedLinkReferences": {},
  "immutableReferences": {},
  "inputSourceName": "project/contracts/BALToken.sol",
  "buildInfoId": "solc-0_8_28-6a7cf966b69a1d591a74c217556ce281be2c415c"
}