{
  "_format": "hh3-artifact-1",
  "contractName": "Voting",
  "sourceName": "contracts/Voting.sol",
  "abi": [
    {
      "inputs": [
        {
          "internalType": "address",
          "name": "balAddress",
          "type": "address"
        },
        {
          "internalType": "uint256",
          "name": "rewardPerVote",
          "type": "uint256"
        }
      ],
      "stateMutability": "nonpayable",
      "type": "constructor"
    },
    {
      "inputs": [],
      "name": "AlreadyVoted",
      "type": "error"
    },
    {
      "inputs": [
        {
          "internalType": "uint64",
          "name": "start",
          "type": "uint64"
        },
        {
          "internalType": "uint64",
          "name": "end",
          "type": "uint64"
        }
      ],
      "name": "BadWindow",
      "type": "error"
    },
    {
      "inputs": [
        {
          "internalType": "uint256",
          "name": "candidateId",
          "type": "uint256"
        }
      ],
      "name": "InvalidCandidate",
      "type": "error"
    },
    {
      "inputs": [],
      "name": "InvalidProof",
      "type": "error"
    },
    {
      "inputs": [
        {
          "internalType": "address",
          "name": "owner",
          "type": "address"
        }
      ],
      "name": "OwnableInvalidOwner",
      "type": "error"
    },
    {
      "inputs": [
        {
          "internalType": "address",
          "name": "account",
          "type": "address"
        }
      ],
      "name": "OwnableUnauthorizedAccount",
      "type": "error"
    },
    {
      "inputs": [],
      "name": "ReentrancyGuardReentrantCall",
      "type": "error"
    },
    {
      "inputs": [],
      "name": "VotingClosed",
      "type": "error"
    },
    {
      "inputs": [],
      "name": "WindowNotSet",
      "type": "error"
    },
    {
      "inputs": [],
      "name": "ZeroAddress",
      "type": "error"
    },
    {
      "inputs": [],
      "name": "ZeroLengthCandidates",
      "type": "error"
    },
    {
      "anonymous": false,
      "inputs": [
        {
          "indexed": false,
          "internalType": "string[]",
          "name": "names",
          "type": "string[]"
        }
      ],
      "name": "CandidatesSet",
      "type": "event"
    },
    {
      "anonymous": false,
      "inputs": [
        {
          "indexed": false,
          "internalType": "bytes32",
          "name": "root",
          "type": "bytes32"
        }
      ],
      "name": "MerkleRootSet",
      "type": "event"
    },
    {
      "anonymous": false,
      "inputs": [
        {
          "indexed": true,
          "internalType": "address",
          "name": "previousOwner",
          "type": "address"
        },
        {
          "indexed": true,
          "internalType": "address",
          "name": "newOwner",
          "type": "address"
        }
      ],
      "name": "OwnershipTransferred",
      "type": "event"
    },
    {
      "anonymous": false,
      "inputs": [
        {
          "indexed": true,
          "internalType": "address",
          "name": "to",
          "type": "address"
        },
        {
          "indexed": false,
          "internalType": "uint256",
          "name": "amount",
          "type": "uint256"
        }
      ],
      "name": "RewardMinted",
      "type": "event"
    },
    {
      "anonymous": false,
      "inputs": [
        {
          "indexed": true,
          "internalType": "address",
          "name": "voter",
          "type": "address"
        },
        {
          "indexed": true,
          "internalType": "uint256",
          "name": "candidateId",
          "type": "uint256"
        }
      ],
      "name": "Voted",
      "type": "event"
    },
    {
      "anonymous": false,
      "inputs": [
        {
          "indexed": false,
          "internalType": "uint64",
          "name": "start",
          "type": "uint64"
        },
        {
          "indexed": false,
          "internalType": "uint64",
          "name": "end",
          "type": "uint64"
        }
      ],
      "name": "WindowSet",
      "type": "event"
    },
    {
      "inputs": [],
      "name": "balToken",
      "outputs": [
        {
          "internalType": "contract IBALToken",
          "name": "",
          "type": "address"
        }
      ],
      "stateMutability": "view",
      "type": "function"
    },
    {
      "inputs": [],
      "name": "candidateCount",
      "outputs": [
        {
          "internalType": "uint256",
          "name": "",
          "type": "uint256"
        }
      ],
      "stateMutability": "view",
      "type": "function"
    },
    {
      "inputs": [],
      "name": "end",
      "outputs": [
        {
          "internalType": "uint64",
          "name": "",
          "type": "uint64"
        }
      ],
      "stateMutability": "view",
      "type": "function"
    },
    {
      "inputs": [
        {
          "internalType": "uint256",
          "name": "candidateId",
          "type": "uint256"
        }
      ],
      "name": "getCandidate",
      "outputs": [
        {
          "internalType": "string",
          "name": "",
          "type": "string"
        }
      ],
      "stateMutability": "view",
      "type": "function"
    },
    {
      "inputs": [],
      "name": "getCandidates",
      "outputs": [
        {
          "internalType": "string[]",
          "name": "",
          "type": "string[]"
        }
      ],
      "stateMutability": "view",
      "type": "function"
    },
    {
      "inputs": [],
      "name": "getResults",
      "outputs": [
        {
          "internalType": "string[]",
          "name": "candidates",
          "type": "string[]"
        },
        {
          "internalType": "uint256[]",
          "name": "votes",
          "type": "uint256[]"
        }
      ],
      "stateMutability": "view",
      "type": "function"
    },
    {
      "inputs": [
        {
          "internalType": "uint256",
          "name": "candidateId",
          "type": "uint256"
        }
      ],
      "name": "getVotes",
      "outputs": [
        {
          "internalType": "uint256",
          "name": "",
          "type": "uint256"
        }
      ],
      "stateMutability": "view",
      "type": "function"
    },
    {
      "inputs": [],
      "name": "getWindow",
      "outputs": [
        {
          "internalType": "uint64",
          "name": "",
          "type": "uint64"
        },
        {
          "internalType": "uint64",
          "name": "",
          "type": "uint64"
        }
      ],
      "stateMutability": "view",
      "type": "function"
    },
    {
      "inputs": [
        {
          "internalType": "address",
          "name": "",
          "type": "address"
        }
      ],
      "name": "hasVoted",
      "outputs": [
        {
          "internalType": "bool",
          "name": "",
          "type": "bool"
        }
      ],
      "stateMutability": "view",
      "type": "function"
    },
    {
      "inputs": [],
      "name": "owner",
      "outputs": [
        {
          "internalType": "address",
          "name": "",
          "type": "address"
        }
      ],
      "stateMutability": "view",
      "type": "function"
    },
    {
      "inputs": [],
      "name": "renounceOwnership",
      "outputs": [],
      "stateMutability": "nonpayable",
      "type": "function"
    },
    {
      "inputs": [],
      "name": "rewardAmount",
      "outputs": [
        {
          "internalType": "uint256",
          "name": "",
          "type": "uint256"
        }
      ],
      "stateMutability": "view",
      "type": "function"
    },
    {
      "inputs": [
        {
          "internalType": "string[]",
          "name": "names",
          "type": "string[]"
        }
      ],
      "name": "setCandidates",
      "outputs": [],
      "stateMutability": "nonpayable",
      "type": "function"
    },
    {
      "inputs": [
        {
          "internalType": "bytes32",
          "name": "root",
          "type": "bytes32"
        }
      ],
      "name": "setMerkleRoot",
      "outputs": [],
      "stateMutability": "nonpayable",
      "type": "function"
    },
    {
      "inputs": [
        {
          "internalType": "uint64",
          "name": "start_",
          "type": "uint64"
        },
        {
          "internalType": "uint64",
          "name": "end_",
          "type": "uint64"
        }
      ],
      "name": "setWindow",
      "outputs": [],
      "stateMutability": "nonpayable",
      "type": "function"
    },
    {
      "inputs": [],
      "name": "start",
      "outputs": [
        {
          "internalType": "uint64",
          "name": "",
          "type": "uint64"
        }
      ],
      "stateMutability": "view",
      "type": "function"
    },
    {
      "inputs": [
        {
          "internalType": "address",
          "name": "newOwner",
          "type": "address"
        }
      ],
      "name": "transferOwnership",
      "outputs": [],
      "stateMutability": "nonpayable",
      "type": "function"
    },
    {
      "inputs": [
        {
          "internalType": "uint256",
          "name": "candidateId",
          "type": "uint256"
        },
        {
          "internalType": "bytes32[]",
          "name": "proof",
          "type": "bytes32[]"
        }
      ],
      "name": "vote",
      "outputs": [],
      "stateMutability": "nonpayable",
      "type": "function"
    },
    {
      "inputs": [
        {
          "internalType": "uint256",
          "name": "",
          "type": "uint256"
        }
      ],
      "name": "voteCounts",
      "outputs": [
        {
          "internalType": "uint256",
          "name": "",
          "type": "uint256"
        }
      ],
      "stateMutability": "view",
      "type": "function"
    },
    {
      "inputs": [],
      "name": "voterRoot",
      "outputs": [
        {
          "internalType": "bytes32",
          "name": "",
          "type": "bytes32"
        }
      ],
      "stateMutability": "view",
      "type": "function"
    }
  ],
  "bytecode": "0x60c060405234801561000f575f5ffd5b506040516123a43803806123a4833981810160405281019061003191906102b3565b335f73ffffffffffffffffffffffffffffffffffffffff168173ffffffffffffffffffffffffffffffffffffffff16036100a2575f6040517f1e4fbdf70000000000000000000000000000000000000000000000000000000081526004016100999190610300565b60405180910390fd5b6100b18161016160201b60201c565b50600180819055505f73ffffffffffffffffffffffffffffffffffffffff168273ffffffffffffffffffffffffffffffffffffffff160361011e576040517fd92e233d00000000000000000000000000000000000000000000000000000000815260040160405180910390fd5b8173ffffffffffffffffffffffffffffffffffffffff1660808173ffffffffffffffffffffffffffffffffffffffff16815250508060a081815250505050610319565b5f5f5f9054906101000a900473ffffffffffffffffffffffffffffffffffffffff169050815f5f6101000a81548173ffffffffffffffffffffffffffffffffffffffff021916908373ffffffffffffffffffffffffffffffffffffffff1602179055508173ffffffffffffffffffffffffffffffffffffffff168173ffffffffffffffffffffffffffffffffffffffff167f8be0079c531659141344cd1fd0a4f28419497f9722a3daafe3b4186f6b6457e060405160405180910390a35050565b5f5ffd5b5f73ffffffffffffffffffffffffffffffffffffffff82169050919050565b5f61024f82610226565b9050919050565b61025f81610245565b8114610269575f5ffd5b50565b5f8151905061027a81610256565b92915050565b5f819050919050565b61029281610280565b811461029c575f5ffd5b50565b5f815190506102ad81610289565b92915050565b5f5f604083850312156102c9576102c8610222565b5b5f6102d68582860161026c565b92505060206102e78582860161029f565b9150509250929050565b6102fa81610245565b82525050565b5f6020820190506103135f8301846102f1565b92915050565b60805160a05161204e6103565f395f8181610b0201528181610e2801528181610e8b0152610f2e01525f81816107cb0152610e4e015261204e5ff3fe608060405234801561000f575f5ffd5b506004361061012a575f3560e01c8063715018a6116100ab578063efbe1c1c1161006f578063efbe1c1c1461030e578063f2fde38b1461032c578063f7b2a7be14610348578063fd27419b14610366578063ff981099146103825761012a565b8063715018a61461028e5780637cb64759146102985780638da5cb5b146102b4578063a9a981a3146102d2578063be9a6555146102f05761012a565b806335b8e820116100f257806335b8e820146101d357806338d54645146102035780633c3a220d146102215780634717f97c146102515780636c03572f146102705761012a565b806306a49fce1461012e57806309eef43e1461014c5780630a57fcb21461017c57806314e745d9146101985780631d80051d146101b4575b5f5ffd5b6101366103b2565b604051610143919061141f565b60405180910390f35b610166600480360381019061016191906114a1565b610486565b60405161017391906114e6565b60405180910390f35b6101966004803603810190610191919061153c565b6104a3565b005b6101b260048036038101906101ad91906115db565b610593565b005b6101bc61069d565b6040516101ca929190611635565b60405180910390f35b6101ed60048036038101906101e8919061168f565b6106d4565b6040516101fa9190611702565b60405180910390f35b61020b6107c9565b604051610218919061177d565b60405180910390f35b61023b6004803603810190610236919061168f565b6107ed565b60405161024891906117a5565b60405180910390f35b610259610802565b604051610267929190611875565b60405180910390f35b610278610979565b60405161028591906118c2565b60405180910390f35b61029661097f565b005b6102b260048036038101906102ad9190611905565b610992565b005b6102bc610a16565b6040516102c9919061193f565b60405180910390f35b6102da610a3d565b6040516102e791906117a5565b60405180910390f35b6102f8610a49565b6040516103059190611958565b60405180910390f35b610316610a62565b6040516103239190611958565b60405180910390f35b610346600480360381019061034191906114a1565b610a7c565b005b610350610b00565b60405161035d91906117a5565b60405180910390f35b610380600480360381019061037b91906119c6565b610b24565b005b61039c6004803603810190610397919061168f565b610fb5565b6040516103a991906117a5565b60405180910390f35b60606004805480602002602001604051908101604052809291908181526020015f905b8282101561047d578382905f5260205f200180546103f290611a50565b80601f016020809104026020016040519081016040528092919081815260200182805461041e90611a50565b80156104695780601f1061044057610100808354040283529160200191610469565b820191905f5260205f20905b81548152906001019060200180831161044c57829003601f168201915b5050505050815260200190600101906103d5565b50505050905090565b6005602052805f5260405f205f915054906101000a900460ff1681565b6104ab611018565b8167ffffffffffffffff168167ffffffffffffffff16116105055781816040517fd389761b0000000000000000000000000000000000000000000000000000000081526004016104fc929190611635565b60405180910390fd5b8160025f6101000a81548167ffffffffffffffff021916908367ffffffffffffffff16021790555080600260086101000a81548167ffffffffffffffff021916908367ffffffffffffffff1602179055507f2d40db98ab36460f216e9af1035ea46823a120e5c8e83ddbe1878d21cff71b6e8282604051610587929190611635565b60405180910390a15050565b61059b611018565b5f82829050036105d7576040517fef7adb2800000000000000000000000000000000000000000000000000000000815260040160405180910390fd5b60045f6105e4919061125b565b5f5f90505b8282905081101561065f57600483838381811061060957610608611a80565b5b905060200281019061061b9190611ab9565b90918060018154018082558091505060019003905f5260205f20015f909192909192909192909192509182610651929190611ce9565b5080806001019150506105e9565b507fa952e3c6144635fac7ea60dc1b7ae16dd42aa94e258f879c17e7705c3bfa1b418282604051610691929190611efc565b60405180910390a15050565b5f5f60025f9054906101000a900467ffffffffffffffff16600260089054906101000a900467ffffffffffffffff16915091509091565b6060600480549050821061071f57816040517f2e07068400000000000000000000000000000000000000000000000000000000815260040161071691906117a5565b60405180910390fd5b6004828154811061073357610732611a80565b5b905f5260205f2001805461074690611a50565b80601f016020809104026020016040519081016040528092919081815260200182805461077290611a50565b80156107bd5780601f10610794576101008083540402835291602001916107bd565b820191905f5260205f20905b8154815290600101906020018083116107a057829003601f168201915b50505050509050919050565b7f000000000000000000000000000000000000000000000000000000000000000081565b6006602052805f5260405f205f915090505481565b6060806004805480602002602001604051908101604052809291908181526020015f905b828210156108ce578382905f5260205f2001805461084390611a50565b80601f016020809104026020016040519081016040528092919081815260200182805461086f90611a50565b80156108ba5780601f10610891576101008083540402835291602001916108ba565b820191905f5260205f20905b81548152906001019060200180831161089d57829003601f168201915b505050505081526020019060010190610826565b50505050915060048054905067ffffffffffffffff8111156108f3576108f2611b25565b5b6040519080825280602002602001820160405280156109215781602001602082028036833780820191505090505b5090505f5f90505b6004805490508110156109745760065f8281526020019081526020015f205482828151811061095b5761095a611a80565b5b6020026020010181815250508080600101915050610929565b509091565b60035481565b610987611018565b6109905f61109f565b565b61099a611018565b5f5f1b81036109d5576040517f09bde33900000000000000000000000000000000000000000000000000000000815260040160405180910390fd5b806003819055507f42cbc405e4dbf1b691e85b9a34b08ecfcf7a9ad9078bf4d645ccfa1fac11c10b81604051610a0b91906118c2565b60405180910390a150565b5f5f5f9054906101000a900473ffffffffffffffffffffffffffffffffffffffff16905090565b5f600480549050905090565b60025f9054906101000a900467ffffffffffffffff1681565b600260089054906101000a900467ffffffffffffffff1681565b610a84611018565b5f73ffffffffffffffffffffffffffffffffffffffff168173ffffffffffffffffffffffffffffffffffffffff1603610af4575f6040517f1e4fbdf7000000000000000000000000000000000000000000000000000000008152600401610aeb919061193f565b60405180910390fd5b610afd8161109f565b50565b7f000000000000000000000000000000000000000000000000000000000000000081565b610b2c611160565b5f60025f9054906101000a900467ffffffffffffffff1667ffffffffffffffff16148015610b7957505f600260089054906101000a900467ffffffffffffffff1667ffffffffffffffff16145b15610bb0576040517f68d1591600000000000000000000000000000000000000000000000000000000815260040160405180910390fd5b60025f9054906101000a900467ffffffffffffffff1667ffffffffffffffff16421080610bfc5750600260089054906101000a900467ffffffffffffffff1667ffffffffffffffff1642115b15610c33576040517f66b6cb4a00000000000000000000000000000000000000000000000000000000815260040160405180910390fd5b60055f3373ffffffffffffffffffffffffffffffffffffffff1673ffffffffffffffffffffffffffffffffffffffff1681526020019081526020015f205f9054906101000a900460ff1615610cb4576040517f7c9a1cf900000000000000000000000000000000000000000000000000000000815260040160405180910390fd5b6004805490508310610cfd57826040517f2e070684000000000000000000000000000000000000000000000000000000008152600401610cf491906117a5565b60405180910390fd5b5f33604051602001610d0f9190611f63565b604051602081830303815290604052805190602001209050610d748383808060200260200160405190810160405280939291908181526020018383602002808284375f81840152601f19601f82011690508083019250505050505050600354836111a6565b610daa576040517f09bde33900000000000000000000000000000000000000000000000000000000815260040160405180910390fd5b600160055f3373ffffffffffffffffffffffffffffffffffffffff1673ffffffffffffffffffffffffffffffffffffffff1681526020019081526020015f205f6101000a81548160ff02191690831515021790555060065f8581526020019081526020015f205f815480929190610e2090611faa565b91905055505f7f000000000000000000000000000000000000000000000000000000000000000014610f63577f000000000000000000000000000000000000000000000000000000000000000073ffffffffffffffffffffffffffffffffffffffff166340c10f19337f00000000000000000000000000000000000000000000000000000000000000006040518363ffffffff1660e01b8152600401610ec7929190611ff1565b5f604051808303815f87803b158015610ede575f5ffd5b505af1158015610ef0573d5f5f3e3d5ffd5b505050503373ffffffffffffffffffffffffffffffffffffffff167fe8ea3d4dd0a2eaaf3f7532ad391255544f8a4bcf78f850bbff61d5bac9f775527f0000000000000000000000000000000000000000000000000000000000000000604051610f5a91906117a5565b60405180910390a25b833373ffffffffffffffffffffffffffffffffffffffff167f4d99b957a2bc29a30ebd96a7be8e68fe50a3c701db28a91436490b7d53870ca460405160405180910390a350610fb06111bc565b505050565b5f6004805490508210610fff57816040517f2e070684000000000000000000000000000000000000000000000000000000008152600401610ff691906117a5565b60405180910390fd5b60065f8381526020019081526020015f20549050919050565b6110206111c5565b73ffffffffffffffffffffffffffffffffffffffff1661103e610a16565b73ffffffffffffffffffffffffffffffffffffffff161461109d576110616111c5565b6040517f118cdaa7000000000000000000000000000000000000000000000000000000008152600401611094919061193f565b60405180910390fd5b565b5f5f5f9054906101000a900473ffffffffffffffffffffffffffffffffffffffff169050815f5f6101000a81548173ffffffffffffffffffffffffffffffffffffffff021916908373ffffffffffffffffffffffffffffffffffffffff1602179055508173ffffffffffffffffffffffffffffffffffffffff168173ffffffffffffffffffffffffffffffffffffffff167f8be0079c531659141344cd1fd0a4f28419497f9722a3daafe3b4186f6b6457e060405160405180910390a35050565b60026001540361119c576040517f3ee5aeb500000000000000000000000000000000000000000000000000000000815260040160405180910390fd5b6002600181905550565b5f826111b285846111cc565b1490509392505050565b60018081905550565b5f33905090565b5f5f8290505f5f90505b845181101561121257611203828683815181106111f6576111f5611a80565b5b602002602001015161121d565b915080806001019150506111d6565b508091505092915050565b5f8183106112345761122f8284611247565b61123f565b61123e8383611247565b5b905092915050565b5f825f528160205260405f20905092915050565b5080545f8255905f5260205f20908101906112769190611279565b50565b5b80821115611298575f818161128f919061129c565b5060010161127a565b5090565b5080546112a890611a50565b5f825580601f106112b957506112d6565b601f0160209004905f5260205f20908101906112d591906112d9565b5b50565b5b808211156112f0575f815f9055506001016112da565b5090565b5f81519050919050565b5f82825260208201905092915050565b5f819050602082019050919050565b5f81519050919050565b5f82825260208201905092915050565b8281835e5f83830152505050565b5f601f19601f8301169050919050565b5f61135f8261131d565b6113698185611327565b9350611379818560208601611337565b61138281611345565b840191505092915050565b5f6113988383611355565b905092915050565b5f602082019050919050565b5f6113b6826112f4565b6113c081856112fe565b9350836020820285016113d28561130e565b805f5b8581101561140d57848403895281516113ee858261138d565b94506113f9836113a0565b925060208a019950506001810190506113d5565b50829750879550505050505092915050565b5f6020820190508181035f83015261143781846113ac565b905092915050565b5f5ffd5b5f5ffd5b5f73ffffffffffffffffffffffffffffffffffffffff82169050919050565b5f61147082611447565b9050919050565b61148081611466565b811461148a575f5ffd5b50565b5f8135905061149b81611477565b92915050565b5f602082840312156114b6576114b561143f565b5b5f6114c38482850161148d565b91505092915050565b5f8115159050919050565b6114e0816114cc565b82525050565b5f6020820190506114f95f8301846114d7565b92915050565b5f67ffffffffffffffff82169050919050565b61151b816114ff565b8114611525575f5ffd5b50565b5f8135905061153681611512565b92915050565b5f5f604083850312156115525761155161143f565b5b5f61155f85828601611528565b925050602061157085828601611528565b9150509250929050565b5f5ffd5b5f5ffd5b5f5ffd5b5f5f83601f84011261159b5761159a61157a565b5b8235905067ffffffffffffffff8111156115b8576115b761157e565b5b6020830191508360208202830111156115d4576115d3611582565b5b9250929050565b5f5f602083850312156115f1576115f061143f565b5b5f83013567ffffffffffffffff81111561160e5761160d611443565b5b61161a85828601611586565b92509250509250929050565b61162f816114ff565b82525050565b5f6040820190506116485f830185611626565b6116556020830184611626565b9392505050565b5f819050919050565b61166e8161165c565b8114611678575f5ffd5b50565b5f8135905061168981611665565b92915050565b5f602082840312156116a4576116a361143f565b5b5f6116b18482850161167b565b91505092915050565b5f82825260208201905092915050565b5f6116d48261131d565b6116de81856116ba565b93506116ee818560208601611337565b6116f781611345565b840191505092915050565b5f6020820190508181035f83015261171a81846116ca565b905092915050565b5f819050919050565b5f61174561174061173b84611447565b611722565b611447565b9050919050565b5f6117568261172b565b9050919050565b5f6117678261174c565b9050919050565b6117778161175d565b82525050565b5f6020820190506117905f83018461176e565b92915050565b61179f8161165c565b82525050565b5f6020820190506117b85f830184611796565b92915050565b5f81519050919050565b5f82825260208201905092915050565b5f819050602082019050919050565b6117f08161165c565b82525050565b5f61180183836117e7565b60208301905092915050565b5f602082019050919050565b5f611823826117be565b61182d81856117c8565b9350611838836117d8565b805f5b8381101561186857815161184f88826117f6565b975061185a8361180d565b92505060018101905061183b565b5085935050505092915050565b5f6040820190508181035f83015261188d81856113ac565b905081810360208301526118a18184611819565b90509392505050565b5f819050919050565b6118bc816118aa565b82525050565b5f6020820190506118d55f8301846118b3565b92915050565b6118e4816118aa565b81146118ee575f5ffd5b50565b5f813590506118ff816118db565b92915050565b5f6020828403121561191a5761191961143f565b5b5f611927848285016118f1565b91505092915050565b61193981611466565b82525050565b5f6020820190506119525f830184611930565b92915050565b5f60208201905061196b5f830184611626565b92915050565b5f5f83601f8401126119865761198561157a565b5b8235905067ffffffffffffffff8111156119a3576119a261157e565b5b6020830191508360208202830111156119bf576119be611582565b5b9250929050565b5f5f5f604084860312156119dd576119dc61143f565b5b5f6119ea8682870161167b565b935050602084013567ffffffffffffffff811115611a0b57611a0a611443565b5b611a1786828701611971565b92509250509250925092565b7f4e487b71000000000000000000000000000000000000000000000000000000005f52602260045260245ffd5b5f6002820490506001821680611a6757607f821691505b602082108103611a7a57611a79611a23565b5b50919050565b7f4e487b71000000000000000000000000000000000000000000000000000000005f52603260045260245ffd5b5f5ffd5b5f5ffd5b5f5ffd5b5f5f83356001602003843603038112611ad557611ad4611aad565b5b80840192508235915067ffffffffffffffff821115611af757611af6611ab1565b5b602083019250600182023603831315611b1357611b12611ab5565b5b509250929050565b5f82905092915050565b7f4e487b71000000000000000000000000000000000000000000000000000000005f52604160045260245ffd5b5f819050815f5260205f209050919050565b5f6020601f8301049050919050565b5f82821b905092915050565b5f60088302611bae7fffffffffffffffffffffffffffffffffffffffffffffffffffffffffffffffff82611b73565b611bb88683611b73565b95508019841693508086168417925050509392505050565b5f611bea611be5611be08461165c565b611722565b61165c565b9050919050565b5f819050919050565b611c0383611bd0565b611c17611c0f82611bf1565b848454611b7f565b825550505050565b5f5f905090565b611c2e611c1f565b611c39818484611bfa565b505050565b5b81811015611c5c57611c515f82611c26565b600181019050611c3f565b5050565b601f821115611ca157611c7281611b52565b611c7b84611b64565b81016020851015611c8a578190505b611c9e611c9685611b64565b830182611c3e565b50505b505050565b5f82821c905092915050565b5f611cc15f1984600802611ca6565b1980831691505092915050565b5f611cd98383611cb2565b9150826002028217905092915050565b611cf38383611b1b565b67ffffffffffffffff811115611d0c57611d0b611b25565b5b611d168254611a50565b611d21828285611c60565b5f601f831160018114611d4e575f8415611d3c578287013590505b611d468582611cce565b865550611dad565b601f198416611d5c86611b52565b5f5b82811015611d8357848901358255600182019150602085019450602081019050611d5e565b86831015611da05784890135611d9c601f891682611cb2565b8355505b6001600288020188555050505b50505050505050565b5f819050919050565b828183375f83830152505050565b5f611dd88385611327565b9350611de5838584611dbf565b611dee83611345565b840190509392505050565b5f611e05848484611dcd565b90509392505050565b5f5ffd5b5f5ffd5b5f5ffd5b5f5f83356001602003843603038112611e3657611e35611e16565b5b83810192508235915060208301925067ffffffffffffffff821115611e5e57611e5d611e0e565b5b600182023603831315611e7457611e73611e12565b5b509250929050565b5f602082019050919050565b5f611e9383856112fe565b935083602084028501611ea584611db6565b805f5b87811015611eea578484038952611ebf8284611e1a565b611eca868284611df9565b9550611ed584611e7c565b935060208b019a505050600181019050611ea8565b50829750879450505050509392505050565b5f6020820190508181035f830152611f15818486611e88565b90509392505050565b5f8160601b9050919050565b5f611f3482611f1e565b9050919050565b5f611f4582611f2a565b9050919050565b611f5d611f5882611466565b611f3b565b82525050565b5f611f6e8284611f4c565b60148201915081905092915050565b7f4e487b71000000000000000000000000000000000000000000000000000000005f52601160045260245ffd5b5f611fb48261165c565b91507fffffffffffffffffffffffffffffffffffffffffffffffffffffffffffffffff8203611fe657611fe5611f7d565b5b600182019050919050565b5f6040820190506120045f830185611930565b6120116020830184611796565b939250505056fea26469706673582212203985e761604d10e5161c072a12c69fc04fc875e0c674ec0e965cb3a7fe549c4b64736f6c634300081c0033",
  "linkReferences": {},
  "deployedLinkReferences": {},
  "immutableReferences": {
    "9001": [
      {
        "length": 32,
        "start": 1995
      },
      {
        "length": 32,
        "start": 3662
      }
    ],
    "9003": [
      {
        "length": 32,
        "start": 2818
      },
      {
        "length": 32,
        "start": 3624
      },
      {
        "length": 32,
        "start": 3723
      },
      {
        "length": 32,
        "start": 3886
      }
    ]
  },
  "inputSourceName": "project/contracts/Voting.sol",
  "buildInfoId": "solc-0_8_28-e56590c5b364e057a2e90043dca2b1d866ffd163"
}