{
  "_format": "hh3-artifact-1",
  "contractName": "Voting",
  "sourceName": "contracts/Voting.sol",
  "abi": [
    {
      "inputs": [
        {
          "internalType": "address",
          "name": "balAddress",
          "type": "address"
        },
        {
          "internalType": "uint256",
          "name": "rewardPerVote",
          "type": "uint256"
        }
      ],
      "stateMutability": "nonpayable",
      "type": "constructor"
    },
    {
      "inputs": [],
      "name": "AlreadyVoted",
      "type": "error"
    },
    {
      "inputs": [
        {
          "internalType": "uint64",
          "name": "start",
          "type": "uint64"
        },
        {
          "internalType": "uint64",
          "name": "end",
          "type": "uint64"
        }
      ],
      "name": "BadWindow",
      "type": "error"
    },
    {
      "inputs": [
        {
          "internalType": "uint256",
          "name": "candidateId",
          "type": "uint256"
        }
      ],
      "name": "InvalidCandidate",
      "type": "error"
    },
    {
      "inputs": [],
      "name": "InvalidProof",
      "type": "error"
    },
    {
      "inputs": [
        {
          "internalType": "address",
          "name": "owner",
          "type": "address"
        }
      ],
      "name": "OwnableInvalidOwner",
      "type": "error"
    },
    {
      "inputs": [
        {
          "internalType": "address",
          "name": "account",
          "type": "address"
        }
      ],
      "name": "OwnableUnauthorizedAccount",
      "type": "error"
    },
    {
      "inputs": [],
      "name": "ReentrancyGuardReentrantCall",
      "type": "error"
    },
    {
      "inputs": [],
      "name": "VotingClosed",
      "type": "error"
    },
    {
      "inputs": [],
      "name": "WindowNotSet",
      "type": "error"
    },
    {
      "inputs": [],
      "name": "ZeroAddress",
      "type": "error"
    },
    {
      "inputs": [],
      "name": "ZeroLengthCandidates",
      "type": "error"
    },
    {
      "anonymous": false,
      "inputs": [
        {
          "indexed": false,
          "internalType": "string[]",
          "name": "names",
          "type": "string[]"
        }
      ],
      "name": "CandidatesSet",
      "type": "event"
    },
    {
      "anonymous": false,
      "inputs": [
        {
          "indexed": false,
          "internalType": "bytes32",
          "name": "root",
          "type": "bytes32"
        }
      ],
      "name": "MerkleRootSet",
      "type": "event"
    },
    {
      "anonymous": false,
      "inputs": [
        {
          "indexed": true,
          "internalType": "address",
          "name": "previousOwner",
          "type": "address"
        },
        {
          "indexed": true,
          "internalType": "address",
          "name": "newOwner",
          "type": "address"
        }
      ],
      "name": "OwnershipTransferred",
      "type": "event"
    },
    {
      "anonymous": false,
      "inputs": [
        {
          "indexed": true,
          "internalType": "address",
          "name": "to",
          "type": "address"
        },
        {
          "indexed": false,
          "internalType": "uint256",
          "name": "amount",
          "type": "uint256"
        }
      ],
      "name": "RewardMinted",
      "type": "event"
    },
    {
      "anonymous": false,
      "inputs": [
        {
          "indexed": true,
          "internalType": "address",
          "name": "voter",
          "type": "address"
        },
        {
          "indexed": true,
          "internalType": "uint256",
          "name": "candidateId",
          "type": "uint256"
        }
      ],
      "name": "Voted",
      "type": "event"
    },
    {
      "anonymous": false,
      "inputs": [
        {
          "indexed": false,
          "internalType": "uint64",
          "name": "start",
          "type": "uint64"
        },
        {
          "indexed": false,
          "internalType": "uint64",
          "name": "end",
          "type": "uint64"
        }
      ],
      "name": "WindowSet",
      "type": "event"
    },
    {
      "inputs": [],
      "name": "balToken",
      "outputs": [
        {
          "internalType": "contract IBALToken",
          "name": "",
          "type": "address"
        }
      ],
      "stateMutability": "view",
      "type": "function"
    },
    {
      "inputs": [],
      "name": "candidateCount",
      "outputs": [
        {
          "internalType": "uint256",
          "name": "",
          "type": "uint256"
        }
      ],
      "stateMutability": "view",
      "type": "function"
    },
    {
      "inputs": [],
      "name": "end",
      "outputs": [
        {
          "internalType": "uint64",
          "name": "",
          "type": "uint64"
        }
      ],
      "stateMutability": "view",
      "type": "function"
    },
    {
      "inputs": [
        {
          "internalType": "uint256",
          "name": "candidateId",
          "type": "uint256"
        }
      ],
      "name": "getCandidate",
      "outputs": [
        {
          "internalType": "string",
          "name": "",
          "type": "string"
        }
      ],
      "stateMutability": "view",
      "type": "function"
    },
    {
      "inputs": [],
      "name": "getCandidates",
      "outputs": [
        {
          "internalType": "string[]",
          "name": "",
          "type": "string[]"
        }
      ],
      "stateMutability": "view",
      "type": "function"
    },
    {
      "inputs": [],
      "name": "getResults",
      "outputs": [
        {
          "internalType": "string[]",
          "name": "candidates",
          "type": "string[]"
        },
        {
          "internalType": "uint256[]",
          "name": "votes",
          "type": "uint256[]"
        }
      ],
      "stateMutability": "view",
      "type": "function"
    },
    {
      "inputs": [
        {
          "internalType": "uint256",
          "name": "candidateId",
          "type": "uint256"
        }
      ],
      "name": "getVotes",
      "outputs": [
        {
          "internalType": "uint256",
          "name": "",
          "type": "uint256"
        }
      ],
      "stateMutability": "view",
      "type": "function"
    },
    {
      "inputs": [],
      "name": "getWindow",
      "outputs": [
        {
          "internalType": "uint64",
          "name": "",
          "type": "uint64"
        },
        {
          "internalType": "uint64",
          "name": "",
          "type": "uint64"
        }
      ],
      "stateMutability": "view",
      "type": "function"
    },
    {
      "inputs": [
        {
          "internalType": "address",
          "name": "",
          "type": "address"
        }
      ],
      "name": "hasVoted",
      "outputs": [
        {
          "internalType": "bool",
          "name": "",
          "type": "bool"
        }
      ],
      "stateMutability": "view",
      "type": "function"
    },
    {
      "inputs": [],
      "name": "owner",
      "outputs": [
        {
          "internalType": "address",
          "name": "",
          "type": "address"
        }
      ],
      "stateMutability": "view",
      "type": "function"
    },
    {
      "inputs": [],
      "name": "renounceOwnership",
      "outputs": [],
      "stateMutability": "nonpayable",
      "type": "function"
    },
    {
      "inputs": [],
      "name": "rewardAmount",
      "outputs": [
        {
          "internalType": "uint256",
          "name": "",
          "type": "uint256"
        }
      ],
      "stateMutability": "view",
      "type": "function"
    },
    {
      "inputs": [
        {
          "internalType": "string[]",
          "name": "names",
          "type": "string[]"
        }
      ],
      "name": "setCandidates",
      "outputs": [],
      "stateMutability": "nonpayable",
      "type": "function"
    },
    {
      "inputs": [
        {
          "internalType": "bytes32",
          "name": "root",
          "type": "bytes32"
        }
      ],
      "name": "setMerkleRoot",
      "outputs": [],
      "stateMutability": "nonpayable",
      "type": "function"
    },
    {
      "inputs": [
        {
          "internalType": "uint64",
          "name": "start_",
          "type": "uint64"
        },
        {
          "internalType": "uint64",
          "name": "end_",
          "type": "uint64"
        }
      ],
      "name": "setWindow",
      "outputs": [],
      "stateMutability": "nonpayable",
      "type": "function"
    },
    {
      "inputs": [],
      "name": "start",
      "outputs": [
        {
          "internalType": "uint64",
          "name": "",
          "type": "uint64"
        }
      ],
      "stateMutability": "view",
      "type": "function"
    },
    {
      "inputs": [
        {
          "internalType": "address",
          "name": "newOwner",
          "type": "address"
        }
      ],
      "name": "transferOwnership",
      "outputs": [],
      "stateMutability": "nonpayable",
      "type": "function"
    },
    {
      "inputs": [
        {
          "internalType": "uint256",
          "name": "candidateId",
          "type": "uint256"
        },
        {
          "internalType": "bytes32[]",
          "name": "proof",
          "type": "bytes32[]"
        }
      ],
      "name": "vote",
      "outputs": [],
      "stateMutability": "nonpayable",
      "type": "function"
    },
    {
      "inputs": [
        {
          "internalType": "uint256",
          "name": "",
          "type": "uint256"
        }
      ],
      "name": "voteCounts",
      "outputs": [
        {
          "internalType": "uint256",
          "name": "",
          "type": "uint256"
        }
      ],
      "stateMutability": "view",
      "type": "function"
    },
    {
      "inputs": [],
      "name": "voterRoot",
      "outputs": [
        {
          "internalType": "bytes32",
          "name": "",
          "type": "bytes32"
        }
      ],
      "stateMutability": "view",
      "type": "function"
    }
  ],
  "bytecode": "0x60c060405234801561000f575f5ffd5b50604051612451380380612451833981810160405281019061003191906102b3565b335f73ffffffffffffffffffffffffffffffffffffffff168173ffffffffffffffffffffffffffffffffffffffff16036100a2575f6040517f1e4fbdf70000000000000000000000000000000000000000000000000000000081526004016100999190610300565b60405180910390fd5b6100b18161016160201b60201c565b50600180819055505f73ffffffffffffffffffffffffffffffffffffffff168273ffffffffffffffffffffffffffffffffffffffff160361011e576040517fd92e233d00000000000000000000000000000000000000000000000000000000815260040160405180910390fd5b8173ffffffffffffffffffffffffffffffffffffffff1660808173ffffffffffffffffffffffffffffffffffffffff16815250508060a081815250505050610319565b5f5f5f9054906101000a900473ffffffffffffffffffffffffffffffffffffffff169050815f5f6101000a81548173ffffffffffffffffffffffffffffffffffffffff021916908373ffffffffffffffffffffffffffffffffffffffff1602179055508173ffffffffffffffffffffffffffffffffffffffff168173ffffffffffffffffffffffffffffffffffffffff167f8be0079c531659141344cd1fd0a4f28419497f9722a3daafe3b4186f6b6457e060405160405180910390a35050565b5f5ffd5b5f73ffffffffffffffffffffffffffffffffffffffff82169050919050565b5f61024f82610226565b9050919050565b61025f81610245565b8114610269575f5ffd5b50565b5f8151905061027a81610256565b92915050565b5f819050919050565b61029281610280565b811461029c575f5ffd5b50565b5f815190506102ad81610289565b92915050565b5f5f604083850312156102c9576102c8610222565b5b5f6102d68582860161026c565b92505060206102e78582860161029f565b9150509250929050565b6102fa81610245565b82525050565b5f6020820190506103135f8301846102f1565b92915050565b60805160a0516120fb6103565f395f8181610baf01528181610ed501528181610f380152610fdb01525f81816107cb0152610efb01526120fb5ff3fe608060405234801561000f575f5ffd5b506004361061012a575f3560e01c8063715018a6116100ab578063efbe1c1c1161006f578063efbe1c1c1461030e578063f2fde38b1461032c578063f7b2a7be14610348578063fd27419b14610366578063ff981099146103825761012a565b8063715018a61461028e5780637cb64759146102985780638da5cb5b146102b4578063a9a981a3146102d2578063be9a6555146102f05761012a565b806335b8e820116100f257806335b8e820146101d357806338d54645146102035780633c3a220d146102215780634717f97c146102515780636c03572f146102705761012a565b806306a49fce1461012e57806309eef43e1461014c5780630a57fcb21461017c57806314e745d9146101985780631d80051d146101b4575b5f5ffd5b6101366103b2565b60405161014391906114cc565b60405180910390f35b6101666004803603810190610161919061154e565b610486565b6040516101739190611593565b60405180910390f35b610196600480360381019061019191906115e9565b6104a3565b005b6101b260048036038101906101ad9190611688565b610593565b005b6101bc61069d565b6040516101ca9291906116e2565b60405180910390f35b6101ed60048036038101906101e8919061173c565b6106d4565b6040516101fa91906117af565b60405180910390f35b61020b6107c9565b604051610218919061182a565b60405180910390f35b61023b6004803603810190610236919061173c565b6107ed565b6040516102489190611852565b60405180910390f35b610259610802565b604051610267929190611922565b60405180910390f35b610278610a26565b604051610285919061196f565b60405180910390f35b610296610a2c565b005b6102b260048036038101906102ad91906119b2565b610a3f565b005b6102bc610ac3565b6040516102c991906119ec565b60405180910390f35b6102da610aea565b6040516102e79190611852565b60405180910390f35b6102f8610af6565b6040516103059190611a05565b60405180910390f35b610316610b0f565b6040516103239190611a05565b60405180910390f35b6103466004803603810190610341919061154e565b610b29565b005b610350610bad565b60405161035d9190611852565b60405180910390f35b610380600480360381019061037b9190611a73565b610bd1565b005b61039c6004803603810190610397919061173c565b611062565b6040516103a99190611852565b60405180910390f35b60606004805480602002602001604051908101604052809291908181526020015f905b8282101561047d578382905f5260205f200180546103f290611afd565b80601f016020809104026020016040519081016040528092919081815260200182805461041e90611afd565b80156104695780601f1061044057610100808354040283529160200191610469565b820191905f5260205f20905b81548152906001019060200180831161044c57829003601f168201915b5050505050815260200190600101906103d5565b50505050905090565b6005602052805f5260405f205f915054906101000a900460ff1681565b6104ab6110c5565b8167ffffffffffffffff168167ffffffffffffffff16116105055781816040517fd389761b0000000000000000000000000000000000000000000000000000000081526004016104fc9291906116e2565b60405180910390fd5b8160025f6101000a81548167ffffffffffffffff021916908367ffffffffffffffff16021790555080600260086101000a81548167ffffffffffffffff021916908367ffffffffffffffff1602179055507f2d40db98ab36460f216e9af1035ea46823a120e5c8e83ddbe1878d21cff71b6e82826040516105879291906116e2565b60405180910390a15050565b61059b6110c5565b5f82829050036105d7576040517fef7adb2800000000000000000000000000000000000000000000000000000000815260040160405180910390fd5b60045f6105e49190611308565b5f5f90505b8282905081101561065f57600483838381811061060957610608611b2d565b5b905060200281019061061b9190611b66565b90918060018154018082558091505060019003905f5260205f20015f909192909192909192909192509182610651929190611d96565b5080806001019150506105e9565b507fa952e3c6144635fac7ea60dc1b7ae16dd42aa94e258f879c17e7705c3bfa1b418282604051610691929190611fa9565b60405180910390a15050565b5f5f60025f9054906101000a900467ffffffffffffffff16600260089054906101000a900467ffffffffffffffff16915091509091565b6060600480549050821061071f57816040517f2e0706840000000000000000000000000000000000000000000000000000000081526004016107169190611852565b60405180910390fd5b6004828154811061073357610732611b2d565b5b905f5260205f2001805461074690611afd565b80601f016020809104026020016040519081016040528092919081815260200182805461077290611afd565b80156107bd5780601f10610794576101008083540402835291602001916107bd565b820191905f5260205f20905b8154815290600101906020018083116107a057829003601f168201915b50505050509050919050565b7f000000000000000000000000000000000000000000000000000000000000000081565b6006602052805f5260405f205f915090505481565b6060805f600480549050036108b1575f67ffffffffffffffff81111561082b5761082a611bd2565b5b60405190808252806020026020018201604052801561085e57816020015b60608152602001906001900390816108495790505b505f67ffffffffffffffff81111561087957610878611bd2565b5b6040519080825280602002602001820160405280156108a75781602001602082028036833780820191505090505b5091509150610a22565b6004805480602002602001604051908101604052809291908181526020015f905b8282101561097a578382905f5260205f200180546108ef90611afd565b80601f016020809104026020016040519081016040528092919081815260200182805461091b90611afd565b80156109665780601f1061093d57610100808354040283529160200191610966565b820191905f5260205f20905b81548152906001019060200180831161094957829003601f168201915b5050505050815260200190600101906108d2565b50505050915060048054905067ffffffffffffffff81111561099f5761099e611bd2565b5b6040519080825280602002602001820160405280156109cd5781602001602082028036833780820191505090505b5090505f5f90505b600480549050811015610a205760065f8281526020019081526020015f2054828281518110610a0757610a06611b2d565b5b60200260200101818152505080806001019150506109d5565b505b9091565b60035481565b610a346110c5565b610a3d5f61114c565b565b610a476110c5565b5f5f1b8103610a82576040517f09bde33900000000000000000000000000000000000000000000000000000000815260040160405180910390fd5b806003819055507f42cbc405e4dbf1b691e85b9a34b08ecfcf7a9ad9078bf4d645ccfa1fac11c10b81604051610ab8919061196f565b60405180910390a150565b5f5f5f9054906101000a900473ffffffffffffffffffffffffffffffffffffffff16905090565b5f600480549050905090565b60025f9054906101000a900467ffffffffffffffff1681565b600260089054906101000a900467ffffffffffffffff1681565b610b316110c5565b5f73ffffffffffffffffffffffffffffffffffffffff168173ffffffffffffffffffffffffffffffffffffffff1603610ba1575f6040517f1e4fbdf7000000000000000000000000000000000000000000000000000000008152600401610b9891906119ec565b60405180910390fd5b610baa8161114c565b50565b7f000000000000000000000000000000000000000000000000000000000000000081565b610bd961120d565b5f60025f9054906101000a900467ffffffffffffffff1667ffffffffffffffff16148015610c2657505f600260089054906101000a900467ffffffffffffffff1667ffffffffffffffff16145b15610c5d576040517f68d1591600000000000000000000000000000000000000000000000000000000815260040160405180910390fd5b60025f9054906101000a900467ffffffffffffffff1667ffffffffffffffff16421080610ca95750600260089054906101000a900467ffffffffffffffff1667ffffffffffffffff1642115b15610ce0576040517f66b6cb4a00000000000000000000000000000000000000000000000000000000815260040160405180910390fd5b60055f3373ffffffffffffffffffffffffffffffffffffffff1673ffffffffffffffffffffffffffffffffffffffff1681526020019081526020015f205f9054906101000a900460ff1615610d61576040517f7c9a1cf900000000000000000000000000000000000000000000000000000000815260040160405180910390fd5b6004805490508310610daa57826040517f2e070684000000000000000000000000000000000000000000000000000000008152600401610da19190611852565b60405180910390fd5b5f33604051602001610dbc9190612010565b604051602081830303815290604052805190602001209050610e218383808060200260200160405190810160405280939291908181526020018383602002808284375f81840152601f19601f8201169050808301925050505050505060035483611253565b610e57576040517f09bde33900000000000000000000000000000000000000000000000000000000815260040160405180910390fd5b600160055f3373ffffffffffffffffffffffffffffffffffffffff1673ffffffffffffffffffffffffffffffffffffffff1681526020019081526020015f205f6101000a81548160ff02191690831515021790555060065f8581526020019081526020015f205f815480929190610ecd90612057565b91905055505f7f000000000000000000000000000000000000000000000000000000000000000014611010577f000000000000000000000000000000000000000000000000000000000000000073ffffffffffffffffffffffffffffffffffffffff166340c10f19337f00000000000000000000000000000000000000000000000000000000000000006040518363ffffffff1660e01b8152600401610f7492919061209e565b5f604051808303815f87803b158015610f8b575f5ffd5b505af1158015610f9d573d5f5f3e3d5ffd5b505050503373ffffffffffffffffffffffffffffffffffffffff167fe8ea3d4dd0a2eaaf3f7532ad391255544f8a4bcf78f850bbff61d5bac9f775527f00000000000000000000000000000000000000000000000000000000000000006040516110079190611852565b60405180910390a25b833373ffffffffffffffffffffffffffffffffffffffff167f4d99b957a2bc29a30ebd96a7be8e68fe50a3c701db28a91436490b7d53870ca460405160405180910390a35061105d611269565b505050565b5f60048054905082106110ac57816040517f2e0706840000000000000000000000000000000000000000000000000000000081526004016110a39190611852565b60405180910390fd5b60065f8381526020019081526020015f20549050919050565b6110cd611272565b73ffffffffffffffffffffffffffffffffffffffff166110eb610ac3565b73ffffffffffffffffffffffffffffffffffffffff161461114a5761110e611272565b6040517f118cdaa700000000000000000000000000000000000000000000000000000000815260040161114191906119ec565b60405180910390fd5b565b5f5f5f9054906101000a900473ffffffffffffffffffffffffffffffffffffffff169050815f5f6101000a81548173ffffffffffffffffffffffffffffffffffffffff021916908373ffffffffffffffffffffffffffffffffffffffff1602179055508173ffffffffffffffffffffffffffffffffffffffff168173ffffffffffffffffffffffffffffffffffffffff167f8be0079c531659141344cd1fd0a4f28419497f9722a3daafe3b4186f6b6457e060405160405180910390a35050565b600260015403611249576040517f3ee5aeb500000000000000000000000000000000000000000000000000000000815260040160405180910390fd5b6002600181905550565b5f8261125f8584611279565b1490509392505050565b60018081905550565b5f33905090565b5f5f8290505f5f90505b84518110156112bf576112b0828683815181106112a3576112a2611b2d565b5b60200260200101516112ca565b91508080600101915050611283565b508091505092915050565b5f8183106112e1576112dc82846112f4565b6112ec565b6112eb83836112f4565b5b905092915050565b5f825f528160205260405f20905092915050565b5080545f8255905f5260205f20908101906113239190611326565b50565b5b80821115611345575f818161133c9190611349565b50600101611327565b5090565b50805461135590611afd565b5f825580601f106113665750611383565b601f0160209004905f5260205f20908101906113829190611386565b5b50565b5b8082111561139d575f815f905550600101611387565b5090565b5f81519050919050565b5f82825260208201905092915050565b5f819050602082019050919050565b5f81519050919050565b5f82825260208201905092915050565b8281835e5f83830152505050565b5f601f19601f8301169050919050565b5f61140c826113ca565b61141681856113d4565b93506114268185602086016113e4565b61142f816113f2565b840191505092915050565b5f6114458383611402565b905092915050565b5f602082019050919050565b5f611463826113a1565b61146d81856113ab565b93508360208202850161147f856113bb565b805f5b858110156114ba578484038952815161149b858261143a565b94506114a68361144d565b925060208a01995050600181019050611482565b50829750879550505050505092915050565b5f6020820190508181035f8301526114e48184611459565b905092915050565b5f5ffd5b5f5ffd5b5f73ffffffffffffffffffffffffffffffffffffffff82169050919050565b5f61151d826114f4565b9050919050565b61152d81611513565b8114611537575f5ffd5b50565b5f8135905061154881611524565b92915050565b5f60208284031215611563576115626114ec565b5b5f6115708482850161153a565b91505092915050565b5f8115159050919050565b61158d81611579565b82525050565b5f6020820190506115a65f830184611584565b92915050565b5f67ffffffffffffffff82169050919050565b6115c8816115ac565b81146115d2575f5ffd5b50565b5f813590506115e3816115bf565b92915050565b5f5f604083850312156115ff576115fe6114ec565b5b5f61160c858286016115d5565b925050602061161d858286016115d5565b9150509250929050565b5f5ffd5b5f5ffd5b5f5ffd5b5f5f83601f84011261164857611647611627565b5b8235905067ffffffffffffffff8111156116655761166461162b565b5b6020830191508360208202830111156116815761168061162f565b5b9250929050565b5f5f6020838503121561169e5761169d6114ec565b5b5f83013567ffffffffffffffff8111156116bb576116ba6114f0565b5b6116c785828601611633565b92509250509250929050565b6116dc816115ac565b82525050565b5f6040820190506116f55f8301856116d3565b61170260208301846116d3565b9392505050565b5f819050919050565b61171b81611709565b8114611725575f5ffd5b50565b5f8135905061173681611712565b92915050565b5f60208284031215611751576117506114ec565b5b5f61175e84828501611728565b91505092915050565b5f82825260208201905092915050565b5f611781826113ca565b61178b8185611767565b935061179b8185602086016113e4565b6117a4816113f2565b840191505092915050565b5f6020820190508181035f8301526117c78184611777565b905092915050565b5f819050919050565b5f6117f26117ed6117e8846114f4565b6117cf565b6114f4565b9050919050565b5f611803826117d8565b9050919050565b5f611814826117f9565b9050919050565b6118248161180a565b82525050565b5f60208201905061183d5f83018461181b565b92915050565b61184c81611709565b82525050565b5f6020820190506118655f830184611843565b92915050565b5f81519050919050565b5f82825260208201905092915050565b5f819050602082019050919050565b61189d81611709565b82525050565b5f6118ae8383611894565b60208301905092915050565b5f602082019050919050565b5f6118d08261186b565b6118da8185611875565b93506118e583611885565b805f5b838110156119155781516118fc88826118a3565b9750611907836118ba565b9250506001810190506118e8565b5085935050505092915050565b5f6040820190508181035f83015261193a8185611459565b9050818103602083015261194e81846118c6565b90509392505050565b5f819050919050565b61196981611957565b82525050565b5f6020820190506119825f830184611960565b92915050565b61199181611957565b811461199b575f5ffd5b50565b5f813590506119ac81611988565b92915050565b5f602082840312156119c7576119c66114ec565b5b5f6119d48482850161199e565b91505092915050565b6119e681611513565b82525050565b5f6020820190506119ff5f8301846119dd565b92915050565b5f602082019050611a185f8301846116d3565b92915050565b5f5f83601f840112611a3357611a32611627565b5b8235905067ffffffffffffffff811115611a5057611a4f61162b565b5b602083019150836020820283011115611a6c57611a6b61162f565b5b9250929050565b5f5f5f60408486031215611a8a57611a896114ec565b5b5f611a9786828701611728565b935050602084013567ffffffffffffffff811115611ab857611ab76114f0565b5b611ac486828701611a1e565b92509250509250925092565b7f4e487b71000000000000000000000000000000000000000000000000000000005f52602260045260245ffd5b5f6002820490506001821680611b1457607f821691505b602082108103611b2757611b26611ad0565b5b50919050565b7f4e487b71000000000000000000000000000000000000000000000000000000005f52603260045260245ffd5b5f5ffd5b5f5ffd5b5f5ffd5b5f5f83356001602003843603038112611b8257611b81611b5a565b5b80840192508235915067ffffffffffffffff821115611ba457611ba3611b5e565b5b602083019250600182023603831315611bc057611bbf611b62565b5b509250929050565b5f82905092915050565b7f4e487b71000000000000000000000000000000000000000000000000000000005f52604160045260245ffd5b5f819050815f5260205f209050919050565b5f6020601f8301049050919050565b5f82821b905092915050565b5f60088302611c5b7fffffffffffffffffffffffffffffffffffffffffffffffffffffffffffffffff82611c20565b611c658683611c20565b95508019841693508086168417925050509392505050565b5f611c97611c92611c8d84611709565b6117cf565b611709565b9050919050565b5f819050919050565b611cb083611c7d565b611cc4611cbc82611c9e565b848454611c2c565b825550505050565b5f5f905090565b611cdb611ccc565b611ce6818484611ca7565b505050565b5b81811015611d0957611cfe5f82611cd3565b600181019050611cec565b5050565b601f821115611d4e57611d1f81611bff565b611d2884611c11565b81016020851015611d37578190505b611d4b611d4385611c11565b830182611ceb565b50505b505050565b5f82821c905092915050565b5f611d6e5f1984600802611d53565b1980831691505092915050565b5f611d868383611d5f565b9150826002028217905092915050565b611da08383611bc8565b67ffffffffffffffff811115611db957611db8611bd2565b5b611dc38254611afd565b611dce828285611d0d565b5f601f831160018114611dfb575f8415611de9578287013590505b611df38582611d7b565b865550611e5a565b601f198416611e0986611bff565b5f5b82811015611e3057848901358255600182019150602085019450602081019050611e0b565b86831015611e4d5784890135611e49601f891682611d5f565b8355505b6001600288020188555050505b50505050505050565b5f819050919050565b828183375f83830152505050565b5f611e8583856113d4565b9350611e92838584611e6c565b611e9b836113f2565b840190509392505050565b5f611eb2848484611e7a565b90509392505050565b5f5ffd5b5f5ffd5b5f5ffd5b5f5f83356001602003843603038112611ee357611ee2611ec3565b5b83810192508235915060208301925067ffffffffffffffff821115611f0b57611f0a611ebb565b5b600182023603831315611f2157611f20611ebf565b5b509250929050565b5f602082019050919050565b5f611f4083856113ab565b935083602084028501611f5284611e63565b805f5b87811015611f97578484038952611f6c8284611ec7565b611f77868284611ea6565b9550611f8284611f29565b935060208b019a505050600181019050611f55565b50829750879450505050509392505050565b5f6020820190508181035f830152611fc2818486611f35565b90509392505050565b5f8160601b9050919050565b5f611fe182611fcb565b9050919050565b5f611ff282611fd7565b9050919050565b61200a61200582611513565b611fe8565b82525050565b5f61201b8284611ff9565b60148201915081905092915050565b7f4e487b71000000000000000000000000000000000000000000000000000000005f52601160045260245ffd5b5f61206182611709565b91507fffffffffffffffffffffffffffffffffffffffffffffffffffffffffffffffff82036120935761209261202a565b5b600182019050919050565b5f6040820190506120b15f8301856119dd565b6120be6020830184611843565b939250505056fea2646970667358221220e06783c6e182c36d8ccdcee7e2773c0f93a160fff96675804bf96aedaa69720d64736f6c634300081c0033",
  "linkReferences": {},
  "deployedLinkReferences": {},
  "immutableReferences": {
    "9001": [
      {
        "length": 32,
        "start": 1995
      },
      {
        "length": 32,
        "start": 3835
      }
    ],
    "9003": [
      {
        "length": 32,
        "start": 2991
      },
      {
        "length": 32,
        "start": 3797
      },
      {
        "length": 32,
        "start": 3896
      },
      {
        "length": 32,
        "start": 4059
      }
    ]
  },
  "inputSourceName": "project/contracts/Voting.sol",
  "buildInfoId": "solc-0_8_28-6a7cf966b69a1d591a74c217556ce281be2c415c"
}