{
  "_format": "hh3-artifact-1",
  "contractName": "Voting",
  "sourceName": "contracts/Voting.sol",
  "abi": [
    {
      "inputs": [
        {
          "internalType": "address",
          "name": "balAddress",
          "type": "address"
        },
        {
          "internalType": "uint256",
          "name": "rewardPerVote",
          "type": "uint256"
        },
        {
          "internalType": "address",
          "name": "nftAddress",
          "type": "address"
        }
      ],
      "stateMutability": "nonpayable",
      "type": "constructor"
    },
    {
      "inputs": [],
      "name": "AlreadyVoted",
      "type": "error"
    },
    {
      "inputs": [
        {
          "internalType": "uint64",
          "name": "start",
          "type": "uint64"
        },
        {
          "internalType": "uint64",
          "name": "end",
          "type": "uint64"
        }
      ],
      "name": "BadWindow",
      "type": "error"
    },
    {
      "inputs": [
        {
          "internalType": "uint256",
          "name": "candidateId",
          "type": "uint256"
        }
      ],
      "name": "InvalidCandidate",
      "type": "error"
    },
    {
      "inputs": [
        {
          "internalType": "uint8",
          "name": "position",
          "type": "uint8"
        }
      ],
      "name": "InvalidPosition",
      "type": "error"
    },
    {
      "inputs": [],
      "name": "InvalidProof",
      "type": "error"
    },
    {
      "inputs": [
        {
          "internalType": "address",
          "name": "owner",
          "type": "address"
        }
      ],
      "name": "OwnableInvalidOwner",
      "type": "error"
    },
    {
      "inputs": [
        {
          "internalType": "address",
          "name": "account",
          "type": "address"
        }
      ],
      "name": "OwnableUnauthorizedAccount",
      "type": "error"
    },
    {
      "inputs": [],
      "name": "ReentrancyGuardReentrantCall",
      "type": "error"
    },
    {
      "inputs": [],
      "name": "VotingClosed",
      "type": "error"
    },
    {
      "inputs": [],
      "name": "WindowNotSet",
      "type": "error"
    },
    {
      "inputs": [],
      "name": "ZeroAddress",
      "type": "error"
    },
    {
      "inputs": [],
      "name": "ZeroLengthCandidates",
      "type": "error"
    },
    {
      "anonymous": false,
      "inputs": [
        {
          "indexed": true,
          "internalType": "uint256",
          "name": "candidateId",
          "type": "uint256"
        },
        {
          "indexed": false,
          "internalType": "string",
          "name": "name",
          "type": "string"
        }
      ],
      "name": "CandidateAdded",
      "type": "event"
    },
    {
      "anonymous": false,
      "inputs": [
        {
          "indexed": false,
          "internalType": "string[]",
          "name": "names",
          "type": "string[]"
        }
      ],
      "name": "CandidatesSet",
      "type": "event"
    },
    {
      "anonymous": false,
      "inputs": [
        {
          "indexed": false,
          "internalType": "bytes32",
          "name": "root",
          "type": "bytes32"
        }
      ],
      "name": "MerkleRootSet",
      "type": "event"
    },
    {
      "anonymous": false,
      "inputs": [
        {
          "indexed": true,
          "internalType": "address",
          "name": "previousOwner",
          "type": "address"
        },
        {
          "indexed": true,
          "internalType": "address",
          "name": "newOwner",
          "type": "address"
        }
      ],
      "name": "OwnershipTransferred",
      "type": "event"
    },
    {
      "anonymous": false,
      "inputs": [
        {
          "indexed": true,
          "internalType": "address",
          "name": "to",
          "type": "address"
        },
        {
          "indexed": false,
          "internalType": "uint256",
          "name": "amount",
          "type": "uint256"
        }
      ],
      "name": "RewardMinted",
      "type": "event"
    },
    {
      "anonymous": false,
      "inputs": [
        {
          "indexed": true,
          "internalType": "address",
          "name": "voter",
          "type": "address"
        },
        {
          "indexed": true,
          "internalType": "uint256",
          "name": "candidateId",
          "type": "uint256"
        },
        {
          "indexed": false,
          "internalType": "bool",
          "name": "isAnonymous",
          "type": "bool"
        }
      ],
      "name": "Voted",
      "type": "event"
    },
    {
      "anonymous": false,
      "inputs": [
        {
          "indexed": false,
          "internalType": "uint64",
          "name": "start",
          "type": "uint64"
        },
        {
          "indexed": false,
          "internalType": "uint64",
          "name": "end",
          "type": "uint64"
        }
      ],
      "name": "WindowSet",
      "type": "event"
    },
    {
      "inputs": [
        {
          "internalType": "string",
          "name": "name",
          "type": "string"
        },
        {
          "internalType": "uint8[3]",
          "name": "positions",
          "type": "uint8[3]"
        }
      ],
      "name": "addCandidate",
      "outputs": [],
      "stateMutability": "nonpayable",
      "type": "function"
    },
    {
      "inputs": [],
      "name": "balToken",
      "outputs": [
        {
          "internalType": "contract IBALToken",
          "name": "",
          "type": "address"
        }
      ],
      "stateMutability": "view",
      "type": "function"
    },
    {
      "inputs": [],
      "name": "candidateCount",
      "outputs": [
        {
          "internalType": "uint256",
          "name": "",
          "type": "uint256"
        }
      ],
      "stateMutability": "view",
      "type": "function"
    },
    {
      "inputs": [],
      "name": "candidateNFT",
      "outputs": [
        {
          "internalType": "contract ICandidateNFT",
          "name": "",
          "type": "address"
        }
      ],
      "stateMutability": "view",
      "type": "function"
    },
    {
      "inputs": [],
      "name": "end",
      "outputs": [
        {
          "internalType": "uint64",
          "name": "",
          "type": "uint64"
        }
      ],
      "stateMutability": "view",
      "type": "function"
    },
    {
      "inputs": [
        {
          "internalType": "uint256",
          "name": "candidateId",
          "type": "uint256"
        }
      ],
      "name": "getCandidate",
      "outputs": [
        {
          "internalType": "string",
          "name": "name",
          "type": "string"
        },
        {
          "internalType": "uint8[3]",
          "name": "positions",
          "type": "uint8[3]"
        },
        {
          "internalType": "uint256",
          "name": "voteCount",
          "type": "uint256"
        }
      ],
      "stateMutability": "view",
      "type": "function"
    },
    {
      "inputs": [],
      "name": "getCandidateDetails",
      "outputs": [
        {
          "internalType": "string[]",
          "name": "names",
          "type": "string[]"
        },
        {
          "internalType": "uint8[3][]",
          "name": "positions",
          "type": "uint8[3][]"
        },
        {
          "internalType": "uint256[]",
          "name": "votes",
          "type": "uint256[]"
        }
      ],
      "stateMutability": "view",
      "type": "function"
    },
    {
      "inputs": [],
      "name": "getCandidates",
      "outputs": [
        {
          "internalType": "string[]",
          "name": "",
          "type": "string[]"
        }
      ],
      "stateMutability": "view",
      "type": "function"
    },
    {
      "inputs": [],
      "name": "getResults",
      "outputs": [
        {
          "internalType": "string[]",
          "name": "candidates",
          "type": "string[]"
        },
        {
          "internalType": "uint256[]",
          "name": "votes",
          "type": "uint256[]"
        }
      ],
      "stateMutability": "view",
      "type": "function"
    },
    {
      "inputs": [
        {
          "internalType": "uint256",
          "name": "candidateId",
          "type": "uint256"
        }
      ],
      "name": "getVotes",
      "outputs": [
        {
          "internalType": "uint256",
          "name": "",
          "type": "uint256"
        }
      ],
      "stateMutability": "view",
      "type": "function"
    },
    {
      "inputs": [],
      "name": "getWindow",
      "outputs": [
        {
          "internalType": "uint64",
          "name": "",
          "type": "uint64"
        },
        {
          "internalType": "uint64",
          "name": "",
          "type": "uint64"
        }
      ],
      "stateMutability": "view",
      "type": "function"
    },
    {
      "inputs": [
        {
          "internalType": "address",
          "name": "",
          "type": "address"
        }
      ],
      "name": "hasVoted",
      "outputs": [
        {
          "internalType": "bool",
          "name": "",
          "type": "bool"
        }
      ],
      "stateMutability": "view",
      "type": "function"
    },
    {
      "inputs": [],
      "name": "owner",
      "outputs": [
        {
          "internalType": "address",
          "name": "",
          "type": "address"
        }
      ],
      "stateMutability": "view",
      "type": "function"
    },
    {
      "inputs": [],
      "name": "renounceOwnership",
      "outputs": [],
      "stateMutability": "nonpayable",
      "type": "function"
    },
    {
      "inputs": [],
      "name": "rewardAmount",
      "outputs": [
        {
          "internalType": "uint256",
          "name": "",
          "type": "uint256"
        }
      ],
      "stateMutability": "view",
      "type": "function"
    },
    {
      "inputs": [
        {
          "internalType": "string[]",
          "name": "names",
          "type": "string[]"
        }
      ],
      "name": "setCandidates",
      "outputs": [],
      "stateMutability": "nonpayable",
      "type": "function"
    },
    {
      "inputs": [
        {
          "internalType": "bytes32",
          "name": "root",
          "type": "bytes32"
        }
      ],
      "name": "setMerkleRoot",
      "outputs": [],
      "stateMutability": "nonpayable",
      "type": "function"
    },
    {
      "inputs": [
        {
          "internalType": "uint64",
          "name": "start_",
          "type": "uint64"
        },
        {
          "internalType": "uint64",
          "name": "end_",
          "type": "uint64"
        }
      ],
      "name": "setWindow",
      "outputs": [],
      "stateMutability": "nonpayable",
      "type": "function"
    },
    {
      "inputs": [],
      "name": "start",
      "outputs": [
        {
          "internalType": "uint64",
          "name": "",
          "type": "uint64"
        }
      ],
      "stateMutability": "view",
      "type": "function"
    },
    {
      "inputs": [
        {
          "internalType": "address",
          "name": "newOwner",
          "type": "address"
        }
      ],
      "name": "transferOwnership",
      "outputs": [],
      "stateMutability": "nonpayable",
      "type": "function"
    },
    {
      "inputs": [
        {
          "internalType": "uint256",
          "name": "candidateId",
          "type": "uint256"
        },
        {
          "internalType": "bytes32[]",
          "name": "proof",
          "type": "bytes32[]"
        }
      ],
      "name": "vote",
      "outputs": [],
      "stateMutability": "nonpayable",
      "type": "function"
    },
    {
      "inputs": [
        {
          "internalType": "uint8[3]",
          "name": "positions",
          "type": "uint8[3]"
        },
        {
          "internalType": "bytes32[]",
          "name": "proof",
          "type": "bytes32[]"
        }
      ],
      "name": "voteByQuestionnaire",
      "outputs": [],
      "stateMutability": "nonpayable",
      "type": "function"
    },
    {
      "inputs": [],
      "name": "voterRoot",
      "outputs": [
        {
          "internalType": "bytes32",
          "name": "",
          "type": "bytes32"
        }
      ],
      "stateMutability": "view",
      "type": "function"
    }
  ],
  "bytecode": "0x60c060405234801561000f575f5ffd5b5060405161221f38038061221f83398101604081905261002e91610130565b338061005357604051631e4fbdf760e01b81525f600482015260240160405180910390fd5b61005c816100c6565b50600180556001600160a01b0383166100885760405163d92e233d60e01b815260040160405180910390fd5b6001600160a01b0380841660805260a08390528116156100be57600680546001600160a01b0319166001600160a01b0383161790555b505050610169565b5f80546001600160a01b038381166001600160a01b0319831681178455604051919092169283917f8be0079c531659141344cd1fd0a4f28419497f9722a3daafe3b4186f6b6457e09190a35050565b80516001600160a01b038116811461012b575f5ffd5b919050565b5f5f5f60608486031215610142575f5ffd5b61014b84610115565b92506020840151915061016060408501610115565b90509250925092565b60805160a0516120796101a65f395f818161035c01528181611578015281816115b1015261163901525f818161022801526115d701526120795ff3fe608060405234801561000f575f5ffd5b5060043610610148575f3560e01c80636c03572f116100bf578063bedffe9311610079578063bedffe9314610317578063efbe1c1c1461032a578063f2fde38b14610344578063f7b2a7be14610357578063fd27419b1461037e578063ff98109914610391575f5ffd5b80636c03572f146102a2578063715018a6146102b95780637cb64759146102c15780638da5cb5b146102d4578063a9a981a3146102e4578063be9a6555146102ec575f5ffd5b80631d80051d116101105780631d80051d146101d757806335b8e8201461020157806338d54645146102235780633bdbf949146102625780634717f97c146102755780635a2608761461028b575f5ffd5b806306a49fce1461014c57806309eef43e1461016a5780630a57fcb21461019c57806314e745d9146101b15780631b51773a146101c4575b5f5ffd5b6101546103a4565b6040516101619190611921565b60405180910390f35b61018c610178366004611933565b60056020525f908152604090205460ff1681565b6040519015158152602001610161565b6101af6101aa366004611974565b6104d8565b005b6101af6101bf3660046119ec565b61059e565b6101af6101d2366004611a3a565b6106eb565b600254604080516001600160401b038084168252600160401b909304909216602083015201610161565b61021461020f366004611ab6565b61093f565b60405161016193929190611af8565b61024a7f000000000000000000000000000000000000000000000000000000000000000081565b6040516001600160a01b039091168152602001610161565b6101af610270366004611b27565b610aa3565b61027d610c40565b604051610161929190611bb0565b610293610e45565b60405161016193929190611bdd565b6102ab60035481565b604051908152602001610161565b6101af611171565b6101af6102cf366004611ab6565b611184565b5f546001600160a01b031661024a565b6004546102ab565b6002546102ff906001600160401b031681565b6040516001600160401b039091168152602001610161565b60065461024a906001600160a01b031681565b6002546102ff90600160401b90046001600160401b031681565b6101af610352366004611933565b6111e5565b6102ab7f000000000000000000000000000000000000000000000000000000000000000081565b6101af61038c366004611c53565b611222565b6102ab61039f366004611ab6565b6112b2565b6004546060905f906001600160401b038111156103c3576103c3611c81565b6040519080825280602002602001820160405280156103f657816020015b60608152602001906001900390816103e15790505b5090505f5b6004548110156104d2576004818154811061041857610418611c95565b905f5260205f2090600302015f01805461043190611ca9565b80601f016020809104026020016040519081016040528092919081815260200182805461045d90611ca9565b80156104a85780601f1061047f576101008083540402835291602001916104a8565b820191905f5260205f20905b81548152906001019060200180831161048b57829003601f168201915b50505050508282815181106104bf576104bf611c95565b60209081029190910101526001016103fb565b50919050565b6104e0611303565b816001600160401b0316816001600160401b03161161052a5760405163d389761b60e01b81526001600160401b038084166004830152821660248201526044015b60405180910390fd5b600280546001600160401b038481166fffffffffffffffffffffffffffffffff199092168217600160401b918516918202179092556040805191825260208201929092527f2d40db98ab36460f216e9af1035ea46823a120e5c8e83ddbe1878d21cff71b6e91015b60405180910390a15050565b6105a6611303565b5f8190036105c757604051631def5b6560e31b815260040160405180910390fd5b6105d260045f61175a565b5f5b818110156106b957600460405180606001604052808585858181106105fb576105fb611c95565b905060200281019061060d9190611cdb565b8080601f0160208091040260200160405190810160405280939291908181526020018383808284375f920182905250938552505060408051606081018252600580825260208281018290528284019190915280860191909152930182905250835460018101855593815220815191926003020190819061068d9082611d68565b5060208201516106a39060018301906003611778565b50604091909101516002909101556001016105d4565b507fa952e3c6144635fac7ea60dc1b7ae16dd42aa94e258f879c17e7705c3bfa1b418282604051610592929190611e4a565b6106f3611303565b5f5b600381101561077a57600a82826003811061071257610712611c95565b6020020160208101906107259190611ee8565b60ff1611156107725781816003811061074057610740611c95565b6020020160208101906107539190611ee8565b604051634e6153af60e11b815260ff9091166004820152602401610521565b6001016106f5565b506040805160806020601f860181900402820181019092526060810184815260049282919087908790819085018382808284375f9201919091525050509082525060408051606081810190925260209092019190859060039083908390808284375f9201829052509284525050602091820181905283546001810185559381522081519192600302019081906108109082611d68565b5060208201516108269060018301906003611778565b50604091909101516002909101556004545f9061084590600190611f1c565b6006549091506001600160a01b0316156108ff576006546001600160a01b031663c4802e5161087b5f546001600160a01b031690565b86868888604051602001610890929190611f2f565b6040516020818303038152906040526040518563ffffffff1660e01b81526004016108be9493929190611f5b565b6020604051808303815f875af19250505080156108f8575060408051601f3d908101601f191682019092526108f591810190611f91565b60015b156108ff57505b807fe83b2a43e7e82d975c8a0a6d2f045153c869e111136a34d1889ab7b598e396a38585604051610931929190611fa8565b60405180910390a250505050565b6060610949611808565b6004545f90841061097057604051630b81c1a160e21b815260048101859052602401610521565b5f6004858154811061098457610984611c95565b905f5260205f2090600302016040518060600160405290815f820180546109aa90611ca9565b80601f01602080910402602001604051908101604052809291908181526020018280546109d690611ca9565b8015610a215780601f106109f857610100808354040283529160200191610a21565b820191905f5260205f20905b815481529060010190602001808311610a0457829003601f168201915b5050509183525050604080516060810191829052602090920191906001840190600390825f855b825461010083900a900460ff16815260206001928301818104948501949093039092029101808411610a4857505050928452505050600291909101546020918201528151908201516040909201519097919650945092505050565b610aab61132f565b5f5b6003811015610b0057600a848260038110610aca57610aca611c95565b602002016020810190610add9190611ee8565b60ff161115610af85783816003811061074057610740611c95565b600101610aad565b50610b0c5f8383611359565b5f5f19815b600454811015610bba575f610ba08760048481548110610b3357610b33611c95565b905f5260205f209060030201600101600380602002604051908101604052809291908260038015610b96576020028201915f905b825461010083900a900460ff16815260206001928301818104948501949093039092029101808411610b675790505b50505050506114f1565b905082811015610bb1578092508193505b50600101610b11565b5060048281548110610bce57610bce611c95565b5f91825260208220600260039092020101805491610beb83611fc3565b9190505550610bf8611576565b60405160018152829033907f749addf8eadeff63c43be59c27331be5c6d4fc9e82bbfbcf162321c9b35a95b49060200160405180910390a35050610c3b60018055565b505050565b60045460609081905f03610c9057604080515f8082526020820190925290610c78565b6060815260200190600190039081610c635790505b50604080515f81526020810190915290939092509050565b6004546001600160401b03811115610caa57610caa611c81565b604051908082528060200260200182016040528015610cdd57816020015b6060815260200190600190039081610cc85790505b506004549092506001600160401b03811115610cfb57610cfb611c81565b604051908082528060200260200182016040528015610d24578160200160208202803683370190505b5090505f5b600454811015610e405760048181548110610d4657610d46611c95565b905f5260205f2090600302015f018054610d5f90611ca9565b80601f0160208091040260200160405190810160405280929190818152602001828054610d8b90611ca9565b8015610dd65780601f10610dad57610100808354040283529160200191610dd6565b820191905f5260205f20905b815481529060010190602001808311610db957829003601f168201915b5050505050838281518110610ded57610ded611c95565b602002602001018190525060048181548110610e0b57610e0b611c95565b905f5260205f20906003020160020154828281518110610e2d57610e2d611c95565b6020908102919091010152600101610d29565b509091565b60608060606004805490505f03610ecc57604080515f8082526020820190925290610e80565b6060815260200190600190039081610e6b5790505b50604080515f8082526020820190925290610eb1565b610e9e611808565b815260200190600190039081610e965790505b50604080515f81526020810190915291959094509092509050565b6004546001600160401b03811115610ee657610ee6611c81565b604051908082528060200260200182016040528015610f1957816020015b6060815260200190600190039081610f045790505b506004549093506001600160401b03811115610f3757610f37611c81565b604051908082528060200260200182016040528015610f7057816020015b610f5d611808565b815260200190600190039081610f555790505b506004549092506001600160401b03811115610f8e57610f8e611c81565b604051908082528060200260200182016040528015610fb7578160200160208202803683370190505b5090505f5b60045481101561116b5760048181548110610fd957610fd9611c95565b905f5260205f2090600302015f018054610ff290611ca9565b80601f016020809104026020016040519081016040528092919081815260200182805461101e90611ca9565b80156110695780601f1061104057610100808354040283529160200191611069565b820191905f5260205f20905b81548152906001019060200180831161104c57829003601f168201915b505050505084828151811061108057611080611c95565b60200260200101819052506004818154811061109e5761109e611c95565b905f5260205f209060030201600101600380602002604051908101604052809291908260038015611101576020028201915f905b825461010083900a900460ff168152602060019283018181049485019490930390920291018084116110d25790505b505050505083828151811061111857611118611c95565b60200260200101819052506004818154811061113657611136611c95565b905f5260205f2090600302016002015482828151811061115857611158611c95565b6020908102919091010152600101610fbc565b50909192565b611179611303565b6111825f61168d565b565b61118c611303565b806111aa576040516309bde33960e01b815260040160405180910390fd5b60038190556040518181527f42cbc405e4dbf1b691e85b9a34b08ecfcf7a9ad9078bf4d645ccfa1fac11c10b9060200160405180910390a150565b6111ed611303565b6001600160a01b03811661121657604051631e4fbdf760e01b81525f6004820152602401610521565b61121f8161168d565b50565b61122a61132f565b611235838383611359565b6004838154811061124857611248611c95565b5f9182526020822060026003909202010180549161126583611fc3565b9190505550611272611576565b6040515f8152839033907f749addf8eadeff63c43be59c27331be5c6d4fc9e82bbfbcf162321c9b35a95b49060200160405180910390a3610c3b60018055565b6004545f9082106112d957604051630b81c1a160e21b815260048101839052602401610521565b600482815481106112ec576112ec611c95565b905f5260205f209060030201600201549050919050565b5f546001600160a01b031633146111825760405163118cdaa760e01b8152336004820152602401610521565b60026001540361135257604051633ee5aeb560e01b815260040160405180910390fd5b6002600155565b6002546001600160401b03161580156113825750600254600160401b90046001600160401b0316155b156113a057604051633468ac8b60e11b815260040160405180910390fd5b6002546001600160401b03164210806113ca5750600254600160401b90046001600160401b031642115b156113e85760405163335b65a560e11b815260040160405180910390fd5b335f9081526005602052604090205460ff161561141857604051637c9a1cf960e01b815260040160405180910390fd5b600454831061143d57604051630b81c1a160e21b815260048101849052602401610521565b6040516bffffffffffffffffffffffff193360601b1660208201525f906034016040516020818303038152906040528051906020012090506114b58383808060200260200160405190810160405280939291908181526020018383602002808284375f920191909152505060035491508490506116dc565b6114d2576040516309bde33960e01b815260040160405180910390fd5b5050335f908152600560205260409020805460ff191660011790555050565b5f80805b600381101561156c575f84826003811061151157611511611c95565b602002015160ff1686836003811061152b5761152b611c95565b60200201602081019061153e9190611ee8565b60ff1661154b9190611fdb565b90506115578180612001565b6115619084612030565b9250506001016114f5565b5090505b92915050565b7f000000000000000000000000000000000000000000000000000000000000000015611182576040516340c10f1960e01b81523360048201527f000000000000000000000000000000000000000000000000000000000000000060248201527f00000000000000000000000000000000000000000000000000000000000000006001600160a01b0316906340c10f19906044015f604051808303815f87803b158015611620575f5ffd5b505af1158015611632573d5f5f3e3d5ffd5b50506040517f000000000000000000000000000000000000000000000000000000000000000081523392507fe8ea3d4dd0a2eaaf3f7532ad391255544f8a4bcf78f850bbff61d5bac9f77552915060200160405180910390a2565b5f80546001600160a01b038381166001600160a01b0319831681178455604051919092169283917f8be0079c531659141344cd1fd0a4f28419497f9722a3daafe3b4186f6b6457e09190a35050565b5f826116e885846116f1565b14949350505050565b5f81815b845181101561156c576117218286838151811061171457611714611c95565b602002602001015161172b565b91506001016116f5565b5f818310611745575f828152602084905260409020611753565b5f8381526020839052604090205b9392505050565b5080545f8255600302905f5260205f209081019061121f9190611826565b6001830191839082156117f8579160200282015f5b838211156117ca57835183826101000a81548160ff021916908360ff16021790555092602001926001016020815f0104928301926001030261178d565b80156117f65782816101000a81549060ff02191690556001016020815f010492830192600103026117ca565b505b5061180492915061184e565b5090565b60405180606001604052806003906020820280368337509192915050565b80821115611804575f6118398282611862565b5f6001830155505f6002820155600301611826565b5b80821115611804575f815560010161184f565b50805461186e90611ca9565b5f825580601f1061187d575050565b601f0160209004905f5260205f209081019061121f919061184e565b5f81518084528060208401602086015e5f602082860101526020601f19601f83011685010191505092915050565b5f82825180855260208501945060208160051b830101602085015f5b8381101561191557601f198584030188526118ff838351611899565b60209889019890935091909101906001016118e3565b50909695505050505050565b602081525f61175360208301846118c7565b5f60208284031215611943575f5ffd5b81356001600160a01b0381168114611753575f5ffd5b80356001600160401b038116811461196f575f5ffd5b919050565b5f5f60408385031215611985575f5ffd5b61198e83611959565b915061199c60208401611959565b90509250929050565b5f5f83601f8401126119b5575f5ffd5b5081356001600160401b038111156119cb575f5ffd5b6020830191508360208260051b85010111156119e5575f5ffd5b9250929050565b5f5f602083850312156119fd575f5ffd5b82356001600160401b03811115611a12575f5ffd5b611a1e858286016119a5565b90969095509350505050565b8060608101831015611570575f5ffd5b5f5f5f60808486031215611a4c575f5ffd5b83356001600160401b03811115611a61575f5ffd5b8401601f81018613611a71575f5ffd5b80356001600160401b03811115611a86575f5ffd5b866020828401011115611a97575f5ffd5b602091820194509250611aad9086908601611a2a565b90509250925092565b5f60208284031215611ac6575f5ffd5b5035919050565b805f5b6003811015611af257815160ff16845260209384019390910190600101611ad0565b50505050565b60a081525f611b0a60a0830186611899565b9050611b196020830185611acd565b826080830152949350505050565b5f5f5f60808486031215611b39575f5ffd5b611b438585611a2a565b925060608401356001600160401b03811115611b5d575f5ffd5b611b69868287016119a5565b9497909650939450505050565b5f8151808452602084019350602083015f5b82811015611ba6578151865260209586019590910190600101611b88565b5093949350505050565b604081525f611bc260408301856118c7565b8281036020840152611bd48185611b76565b95945050505050565b606081525f611bef60608301866118c7565b82810360208401528085518083526020830191506020870192505f5b81811015611c3457611c1e838551611acd565b6020939093019260609290920191600101611c0b565b50508381036040850152611c488186611b76565b979650505050505050565b5f5f5f60408486031215611c65575f5ffd5b8335925060208401356001600160401b03811115611b5d575f5ffd5b634e487b7160e01b5f52604160045260245ffd5b634e487b7160e01b5f52603260045260245ffd5b600181811c90821680611cbd57607f821691505b6020821081036104d257634e487b7160e01b5f52602260045260245ffd5b5f5f8335601e19843603018112611cf0575f5ffd5b8301803591506001600160401b03821115611d09575f5ffd5b6020019150368190038213156119e5575f5ffd5b601f821115610c3b57805f5260205f20601f840160051c81016020851015611d425750805b601f840160051c820191505b81811015611d61575f8155600101611d4e565b5050505050565b81516001600160401b03811115611d8157611d81611c81565b611d9581611d8f8454611ca9565b84611d1d565b6020601f821160018114611dc7575f8315611db05750848201515b5f19600385901b1c1916600184901b178455611d61565b5f84815260208120601f198516915b82811015611df65787850151825560209485019460019092019101611dd6565b5084821015611e1357868401515f19600387901b60f8161c191681555b50505050600190811b01905550565b81835281816020850137505f828201602090810191909152601f909101601f19169091010190565b602080825281018290525f6040600584901b830181019083018583601e1936839003015b87821015611edb57868503603f190184528235818112611e8c575f5ffd5b89016020810190356001600160401b03811115611ea7575f5ffd5b803603821315611eb5575f5ffd5b611ec0878284611e22565b96505050602083019250602084019350600182019150611e6e565b5092979650505050505050565b5f60208284031215611ef8575f5ffd5b813560ff81168114611753575f5ffd5b634e487b7160e01b5f52601160045260245ffd5b8181038181111561157057611570611f08565b70697066733a2f2f63616e6469646174652f60781b8152818360118301375f9101601101908152919050565b6001600160a01b03851681526060602082018190525f90611f7f9083018587611e22565b8281036040840152611c488185611899565b5f60208284031215611fa1575f5ffd5b5051919050565b602081525f611fbb602083018486611e22565b949350505050565b5f60018201611fd457611fd4611f08565b5060010190565b8181035f831280158383131683831282161715611ffa57611ffa611f08565b5092915050565b8082025f8212600160ff1b8414161561201c5761201c611f08565b818105831482151761157057611570611f08565b8082018082111561157057611570611f0856fea2646970667358221220bccb8ad27cf1de76c29f5646d8c880205820c61688a5706b215cffd6803c666464736f6c634300081c0033",
  "linkReferences": {},
  "deployedLinkReferences": {},
  "immutableReferences": {
    "1480": [
      {
        "length": 32,
        "start": 552
      },
      {
        "length": 32,
        "start": 5591
      }
    ],
    "1485": [
      {
        "length": 32,
        "start": 860
      },
      {
        "length": 32,
        "start": 5496
      },
      {
        "length": 32,
        "start": 5553
      },
      {
        "length": 32,
        "start": 5689
      }
    ]
  },
  "inputSourceName": "project/contracts/Voting.sol",
  "buildInfoId": "solc-0_8_28-0bcd4f0acaad088ebb789d5d30ae2b9df1d8da9a"
}