{
  "_format": "hh3-artifact-1",
  "contractName": "CandidateNFT",
  "sourceName": "contracts/CandidateNFT.sol",
  "abi": [
    {
      "inputs": [
        {
          "internalType": "address",
          "name": "initialOwner",
          "type": "address"
        }
      ],
      "stateMutability": "nonpayable",
      "type": "constructor"
    },
    {
      "inputs": [
        {
          "internalType": "uint256",
          "name": "numerator",
          "type": "uint256"
        },
        {
          "internalType": "uint256",
          "name": "denominator",
          "type": "uint256"
        }
      ],
      "name": "ERC2981InvalidDefaultRoyalty",
      "type": "error"
    },
    {
      "inputs": [
        {
          "internalType": "address",
          "name": "receiver",
          "type": "address"
        }
      ],
      "name": "ERC2981InvalidDefaultRoyaltyReceiver",
      "type": "error"
    },
    {
      "inputs": [
        {
          "internalType": "uint256",
          "name": "tokenId",
          "type": "uint256"
        },
        {
          "internalType": "uint256",
          "name": "numerator",
          "type": "uint256"
        },
        {
          "internalType": "uint256",
          "name": "denominator",
          "type": "uint256"
        }
      ],
      "name": "ERC2981InvalidTokenRoyalty",
      "type": "error"
    },
    {
      "inputs": [
        {
          "internalType": "uint256",
          "name": "tokenId",
          "type": "uint256"
        },
        {
          "internalType": "address",
          "name": "receiver",
          "type": "address"
        }
      ],
      "name": "ERC2981InvalidTokenRoyaltyReceiver",
      "type": "error"
    },
    {
      "inputs": [
        {
          "internalType": "address",
          "name": "sender",
          "type": "address"
        },
        {
          "internalType": "uint256",
          "name": "tokenId",
          "type": "uint256"
        },
        {
          "internalType": "address",
          "name": "owner",
          "type": "address"
        }
      ],
      "name": "ERC721IncorrectOwner",
      "type": "error"
    },
    {
      "inputs": [
        {
          "internalType": "address",
          "name": "operator",
          "type": "address"
        },
        {
          "internalType": "uint256",
          "name": "tokenId",
          "type": "uint256"
        }
      ],
      "name": "ERC721InsufficientApproval",
      "type": "error"
    },
    {
      "inputs": [
        {
          "internalType": "address",
          "name": "approver",
          "type": "address"
        }
      ],
      "name": "ERC721InvalidApprover",
      "type": "error"
    },
    {
      "inputs": [
        {
          "internalType": "address",
          "name": "operator",
          "type": "address"
        }
      ],
      "name": "ERC721InvalidOperator",
      "type": "error"
    },
    {
      "inputs": [
        {
          "internalType": "address",
          "name": "owner",
          "type": "address"
        }
      ],
      "name": "ERC721InvalidOwner",
      "type": "error"
    },
    {
      "inputs": [
        {
          "internalType": "address",
          "name": "receiver",
          "type": "address"
        }
      ],
      "name": "ERC721InvalidReceiver",
      "type": "error"
    },
    {
      "inputs": [
        {
          "internalType": "address",
          "name": "sender",
          "type": "address"
        }
      ],
      "name": "ERC721InvalidSender",
      "type": "error"
    },
    {
      "inputs": [
        {
          "internalType": "uint256",
          "name": "tokenId",
          "type": "uint256"
        }
      ],
      "name": "ERC721NonexistentToken",
      "type": "error"
    },
    {
      "inputs": [
        {
          "internalType": "address",
          "name": "owner",
          "type": "address"
        }
      ],
      "name": "OwnableInvalidOwner",
      "type": "error"
    },
    {
      "inputs": [
        {
          "internalType": "address",
          "name": "account",
          "type": "address"
        }
      ],
      "name": "OwnableUnauthorizedAccount",
      "type": "error"
    },
    {
      "anonymous": false,
      "inputs": [
        {
          "indexed": true,
          "internalType": "address",
          "name": "owner",
          "type": "address"
        },
        {
          "indexed": true,
          "internalType": "address",
          "name": "approved",
          "type": "address"
        },
        {
          "indexed": true,
          "internalType": "uint256",
          "name": "tokenId",
          "type": "uint256"
        }
      ],
      "name": "Approval",
      "type": "event"
    },
    {
      "anonymous": false,
      "inputs": [
        {
          "indexed": true,
          "internalType": "address",
          "name": "owner",
          "type": "address"
        },
        {
          "indexed": true,
          "internalType": "address",
          "name": "operator",
          "type": "address"
        },
        {
          "indexed": false,
          "internalType": "bool",
          "name": "approved",
          "type": "bool"
        }
      ],
      "name": "ApprovalForAll",
      "type": "event"
    },
    {
      "anonymous": false,
      "inputs": [
        {
          "indexed": true,
          "internalType": "address",
          "name": "previousOwner",
          "type": "address"
        },
        {
          "indexed": true,
          "internalType": "address",
          "name": "newOwner",
          "type": "address"
        }
      ],
      "name": "OwnershipTransferred",
      "type": "event"
    },
    {
      "anonymous": false,
      "inputs": [
        {
          "indexed": true,
          "internalType": "address",
          "name": "from",
          "type": "address"
        },
        {
          "indexed": true,
          "internalType": "address",
          "name": "to",
          "type": "address"
        },
        {
          "indexed": true,
          "internalType": "uint256",
          "name": "tokenId",
          "type": "uint256"
        }
      ],
      "name": "Transfer",
      "type": "event"
    },
    {
      "inputs": [
        {
          "internalType": "address",
          "name": "to",
          "type": "address"
        },
        {
          "internalType": "uint256",
          "name": "tokenId",
          "type": "uint256"
        }
      ],
      "name": "approve",
      "outputs": [],
      "stateMutability": "nonpayable",
      "type": "function"
    },
    {
      "inputs": [
        {
          "internalType": "address",
          "name": "owner",
          "type": "address"
        }
      ],
      "name": "balanceOf",
      "outputs": [
        {
          "internalType": "uint256",
          "name": "",
          "type": "uint256"
        }
      ],
      "stateMutability": "view",
      "type": "function"
    },
    {
      "inputs": [
        {
          "internalType": "uint256",
          "name": "tokenId",
          "type": "uint256"
        }
      ],
      "name": "getApproved",
      "outputs": [
        {
          "internalType": "address",
          "name": "",
          "type": "address"
        }
      ],
      "stateMutability": "view",
      "type": "function"
    },
    {
      "inputs": [
        {
          "internalType": "address",
          "name": "owner",
          "type": "address"
        },
        {
          "internalType": "address",
          "name": "operator",
          "type": "address"
        }
      ],
      "name": "isApprovedForAll",
      "outputs": [
        {
          "internalType": "bool",
          "name": "",
          "type": "bool"
        }
      ],
      "stateMutability": "view",
      "type": "function"
    },
    {
      "inputs": [
        {
          "internalType": "address",
          "name": "to",
          "type": "address"
        },
        {
          "internalType": "string",
          "name": "uri",
          "type": "string"
        }
      ],
      "name": "mint",
      "outputs": [
        {
          "internalType": "uint256",
          "name": "tokenId",
          "type": "uint256"
        }
      ],
      "stateMutability": "nonpayable",
      "type": "function"
    },
    {
      "inputs": [],
      "name": "name",
      "outputs": [
        {
          "internalType": "string",
          "name": "",
          "type": "string"
        }
      ],
      "stateMutability": "view",
      "type": "function"
    },
    {
      "inputs": [],
      "name": "owner",
      "outputs": [
        {
          "internalType": "address",
          "name": "",
          "type": "address"
        }
      ],
      "stateMutability": "view",
      "type": "function"
    },
    {
      "inputs": [
        {
          "internalType": "uint256",
          "name": "tokenId",
          "type": "uint256"
        }
      ],
      "name": "ownerHistory",
      "outputs": [
        {
          "internalType": "address[]",
          "name": "",
          "type": "address[]"
        }
      ],
      "stateMutability": "view",
      "type": "function"
    },
    {
      "inputs": [
        {
          "internalType": "uint256",
          "name": "tokenId",
          "type": "uint256"
        }
      ],
      "name": "ownerOf",
      "outputs": [
        {
          "internalType": "address",
          "name": "",
          "type": "address"
        }
      ],
      "stateMutability": "view",
      "type": "function"
    },
    {
      "inputs": [],
      "name": "renounceOwnership",
      "outputs": [],
      "stateMutability": "nonpayable",
      "type": "function"
    },
    {
      "inputs": [
        {
          "internalType": "uint256",
          "name": "tokenId",
          "type": "uint256"
        },
        {
          "internalType": "uint256",
          "name": "salePrice",
          "type": "uint256"
        }
      ],
      "name": "royaltyInfo",
      "outputs": [
        {
          "internalType": "address",
          "name": "receiver",
          "type": "address"
        },
        {
          "internalType": "uint256",
          "name": "amount",
          "type": "uint256"
        }
      ],
      "stateMutability": "view",
      "type": "function"
    },
    {
      "inputs": [
        {
          "internalType": "address",
          "name": "from",
          "type": "address"
        },
        {
          "internalType": "address",
          "name": "to",
          "type": "address"
        },
        {
          "internalType": "uint256",
          "name": "tokenId",
          "type": "uint256"
        }
      ],
      "name": "safeTransferFrom",
      "outputs": [],
      "stateMutability": "nonpayable",
      "type": "function"
    },
    {
      "inputs": [
        {
          "internalType": "address",
          "name": "from",
          "type": "address"
        },
        {
          "internalType": "address",
          "name": "to",
          "type": "address"
        },
        {
          "internalType": "uint256",
          "name": "tokenId",
          "type": "uint256"
        },
        {
          "internalType": "bytes",
          "name": "data",
          "type": "bytes"
        }
      ],
      "name": "safeTransferFrom",
      "outputs": [],
      "stateMutability": "nonpayable",
      "type": "function"
    },
    {
      "inputs": [
        {
          "internalType": "address",
          "name": "operator",
          "type": "address"
        },
        {
          "internalType": "bool",
          "name": "approved",
          "type": "bool"
        }
      ],
      "name": "setApprovalForAll",
      "outputs": [],
      "stateMutability": "nonpayable",
      "type": "function"
    },
    {
      "inputs": [
        {
          "internalType": "bytes4",
          "name": "iid",
          "type": "bytes4"
        }
      ],
      "name": "supportsInterface",
      "outputs": [
        {
          "internalType": "bool",
          "name": "",
          "type": "bool"
        }
      ],
      "stateMutability": "view",
      "type": "function"
    },
    {
      "inputs": [],
      "name": "symbol",
      "outputs": [
        {
          "internalType": "string",
          "name": "",
          "type": "string"
        }
      ],
      "stateMutability": "view",
      "type": "function"
    },
    {
      "inputs": [
        {
          "internalType": "uint256",
          "name": "tokenId",
          "type": "uint256"
        }
      ],
      "name": "tokenURI",
      "outputs": [
        {
          "internalType": "string",
          "name": "",
          "type": "string"
        }
      ],
      "stateMutability": "view",
      "type": "function"
    },
    {
      "inputs": [
        {
          "internalType": "address",
          "name": "from",
          "type": "address"
        },
        {
          "internalType": "address",
          "name": "to",
          "type": "address"
        },
        {
          "internalType": "uint256",
          "name": "tokenId",
          "type": "uint256"
        }
      ],
      "name": "transferFrom",
      "outputs": [],
      "stateMutability": "nonpayable",
      "type": "function"
    },
    {
      "inputs": [
        {
          "internalType": "address",
          "name": "newOwner",
          "type": "address"
        }
      ],
      "name": "transferOwnership",
      "outputs": [],
      "stateMutability": "nonpayable",
      "type": "function"
    }
  ],
  "bytecode": "0x60806040526001600955348015610014575f5ffd5b50604051611776380380611776833981016040819052610033916101d1565b806040518060400160405280600c81526020016b10d85b991a59185d1953919560a21b8152506040518060400160405280600481526020016310d3919560e21b815250815f90816100849190610296565b5060016100918282610296565b5050506001600160a01b0381166100c257604051631e4fbdf760e01b81525f60048201526024015b60405180910390fd5b6100cb816100de565b506100d8816103e861012f565b50610350565b600880546001600160a01b038381166001600160a01b0319831681179093556040519116919082907f8be0079c531659141344cd1fd0a4f28419497f9722a3daafe3b4186f6b6457e0905f90a35050565b6127106001600160601b03821681101561016e57604051636f483d0960e01b81526001600160601b0383166004820152602481018290526044016100b9565b6001600160a01b03831661019757604051635b6cc80560e11b81525f60048201526024016100b9565b50604080518082019091526001600160a01b039092168083526001600160601b039091166020909201829052600160a01b90910217600655565b5f602082840312156101e1575f5ffd5b81516001600160a01b03811681146101f7575f5ffd5b9392505050565b634e487b7160e01b5f52604160045260245ffd5b600181811c9082168061022657607f821691505b60208210810361024457634e487b7160e01b5f52602260045260245ffd5b50919050565b601f82111561029157805f5260205f20601f840160051c8101602085101561026f5750805b601f840160051c820191505b8181101561028e575f815560010161027b565b50505b505050565b81516001600160401b038111156102af576102af6101fe565b6102c3816102bd8454610212565b8461024a565b6020601f8211600181146102f5575f83156102de5750848201515b5f19600385901b1c1916600184901b17845561028e565b5f84815260208120601f198516915b828110156103245787850151825560209485019460019092019101610304565b508482101561034157868401515f19600387901b60f8161c191681555b50505050600190811b01905550565b6114198061035d5f395ff3fe608060405234801561000f575f5ffd5b506004361061011c575f3560e01c806370a08231116100a9578063b88d4fde1161006e578063b88d4fde1461027d578063c87b56dd14610290578063d0def521146102a3578063e985e9c5146102b6578063f2fde38b146102c9575f5ffd5b806370a0823114610228578063715018a6146102495780638da5cb5b1461025157806395d89b4114610262578063a22cb4651461026a575f5ffd5b806323b872dd116100ef57806323b872dd1461019d5780632a55205a146101b057806342842e0e146101e2578063461fc090146101f55780636352211e14610215575f5ffd5b806301ffc9a71461012057806306fdde0314610148578063081812fc1461015d578063095ea7b314610188575b5f5ffd5b61013361012e366004610eb6565b6102dc565b60405190151581526020015b60405180910390f35b6101506102ec565b60405161013f9190610eff565b61017061016b366004610f11565b61037b565b6040516001600160a01b03909116815260200161013f565b61019b610196366004610f43565b6103a2565b005b61019b6101ab366004610f6b565b6103b1565b6101c36101be366004610fa5565b61043f565b604080516001600160a01b03909316835260208301919091520161013f565b61019b6101f0366004610f6b565b6104c2565b610208610203366004610f11565b6104e1565b60405161013f9190610fc5565b610170610223366004610f11565b61054a565b61023b610236366004611010565b610554565b60405190815260200161013f565b61019b610599565b6008546001600160a01b0316610170565b6101506105ac565b61019b610278366004611029565b6105bb565b61019b61028b3660046110ed565b6105c6565b61015061029e366004610f11565b6105de565b61023b6102b1366004611164565b61067b565b6101336102c43660046111c2565b6106fb565b61019b6102d7366004611010565b610728565b5f6102e682610765565b92915050565b60605f80546102fa906111f3565b80601f0160208091040260200160405190810160405280929190818152602001828054610326906111f3565b80156103715780601f1061034857610100808354040283529160200191610371565b820191905f5260205f20905b81548152906001019060200180831161035457829003601f168201915b5050505050905090565b5f61038582610789565b505f828152600460205260409020546001600160a01b03166102e6565b6103ad8282336107c1565b5050565b6001600160a01b0382166103df57604051633250574960e11b81525f60048201526024015b60405180910390fd5b5f6103eb8383336107ce565b9050836001600160a01b0316816001600160a01b031614610439576040516364283d7b60e01b81526001600160a01b03808616600483015260248201849052821660448201526064016103d6565b50505050565b5f82815260076020526040812080548291906001600160a01b03811690600160a01b90046001600160601b0316816104925750506006546001600160a01b03811690600160a01b90046001600160601b03165b5f6127106104a96001600160601b0384168961123f565b6104b39190611256565b92989297509195505050505050565b6104dc83838360405180602001604052805f8152506105c6565b505050565b5f818152600b602090815260409182902080548351818402810184019094528084526060939283018282801561053e57602002820191905f5260205f20905b81546001600160a01b03168152600190910190602001808311610520575b50505050509050919050565b5f6102e682610789565b5f6001600160a01b03821661057e576040516322718ad960e21b81525f60048201526024016103d6565b506001600160a01b03165f9081526003602052604090205490565b6105a1610859565b6105aa5f610886565b565b6060600180546102fa906111f3565b6103ad3383836108d7565b6105d18484846103b1565b6104393385858585610975565b60606105e982610789565b505f828152600a602052604090208054610602906111f3565b80601f016020809104026020016040519081016040528092919081815260200182805461062e906111f3565b801561053e5780601f106106505761010080835404028352916020019161053e565b820191905f5260205f20905b81548152906001019060200180831161065c5750939695505050505050565b5f610684610859565b60098054905f61069383611275565b9190505590506106a38382610a9d565b5f818152600a602052604090206106ba83826112d1565b505f818152600b602090815260408220805460018101825590835291200180546001600160a01b0319166001600160a01b0394909416939093179092555090565b6001600160a01b039182165f90815260056020908152604080832093909416825291909152205460ff1690565b610730610859565b6001600160a01b03811661075957604051631e4fbdf760e01b81525f60048201526024016103d6565b61076281610886565b50565b5f6001600160e01b0319821663152a902d60e11b14806102e657506102e682610ab6565b5f818152600260205260408120546001600160a01b0316806102e657604051637e27328960e01b8152600481018490526024016103d6565b6104dc8383836001610b05565b5f6107da848484610c09565b90506001600160a01b03841661081b575f838152600a6020526040812061080091610e3b565b5f838152600b6020526040812061081691610e72565b610852565b5f838152600b602090815260408220805460018101825590835291200180546001600160a01b0319166001600160a01b0386161790555b9392505050565b6008546001600160a01b031633146105aa5760405163118cdaa760e01b81523360048201526024016103d6565b600880546001600160a01b038381166001600160a01b0319831681179093556040519116919082907f8be0079c531659141344cd1fd0a4f28419497f9722a3daafe3b4186f6b6457e0905f90a35050565b6001600160a01b03821661090957604051630b61174360e31b81526001600160a01b03831660048201526024016103d6565b6001600160a01b038381165f81815260056020908152604080832094871680845294825291829020805460ff191686151590811790915591519182527f17307eab39ab6107e8899845ad3d59bd9653f200f220920489ca2b5937696c31910160405180910390a3505050565b6001600160a01b0383163b15610a9657604051630a85bd0160e11b81526001600160a01b0384169063150b7a02906109b790889088908790879060040161138c565b6020604051808303815f875af19250505080156109f1575060408051601f3d908101601f191682019092526109ee918101906113c8565b60015b610a58573d808015610a1e576040519150601f19603f3d011682016040523d82523d5f602084013e610a23565b606091505b5080515f03610a5057604051633250574960e11b81526001600160a01b03851660048201526024016103d6565b805160208201fd5b6001600160e01b03198116630a85bd0160e11b14610a9457604051633250574960e11b81526001600160a01b03851660048201526024016103d6565b505b5050505050565b6103ad828260405180602001604052805f815250610cfb565b5f6001600160e01b031982166380ac58cd60e01b1480610ae657506001600160e01b03198216635b5e139f60e01b145b806102e657506301ffc9a760e01b6001600160e01b03198316146102e6565b8080610b1957506001600160a01b03821615155b15610bda575f610b2884610789565b90506001600160a01b03831615801590610b545750826001600160a01b0316816001600160a01b031614155b8015610b675750610b6581846106fb565b155b15610b905760405163a9fbf51f60e01b81526001600160a01b03841660048201526024016103d6565b8115610bd85783856001600160a01b0316826001600160a01b03167f8c5be1e5ebec7d5bd14f71427d1e84f3dd0314c0f7b2291e5b200ac8c7c3b92560405160405180910390a45b505b50505f90815260046020526040902080546001600160a01b0319166001600160a01b0392909216919091179055565b5f828152600260205260408120546001600160a01b0390811690831615610c3557610c35818486610d12565b6001600160a01b03811615610c6f57610c505f855f5f610b05565b6001600160a01b0381165f90815260036020526040902080545f190190555b6001600160a01b03851615610c9d576001600160a01b0385165f908152600360205260409020805460010190555b5f8481526002602052604080822080546001600160a01b0319166001600160a01b0389811691821790925591518793918516917fddf252ad1be2c89b69c2b068fc378daa952ba7f163c4a11628f55a4df523b3ef91a4949350505050565b610d058383610d76565b6104dc335f858585610975565b610d1d838383610dd7565b6104dc576001600160a01b038316610d4b57604051637e27328960e01b8152600481018290526024016103d6565b60405163177e802f60e01b81526001600160a01b0383166004820152602481018290526044016103d6565b6001600160a01b038216610d9f57604051633250574960e11b81525f60048201526024016103d6565b5f610dab83835f6107ce565b90506001600160a01b038116156104dc576040516339e3563760e11b81525f60048201526024016103d6565b5f6001600160a01b03831615801590610e335750826001600160a01b0316846001600160a01b03161480610e105750610e1084846106fb565b80610e3357505f828152600460205260409020546001600160a01b038481169116145b949350505050565b508054610e47906111f3565b5f825580601f10610e56575050565b601f0160209004905f5260205f20908101906107629190610e89565b5080545f8255905f5260205f209081019061076291905b5b80821115610e9d575f8155600101610e8a565b5090565b6001600160e01b031981168114610762575f5ffd5b5f60208284031215610ec6575f5ffd5b813561085281610ea1565b5f81518084528060208401602086015e5f602082860101526020601f19601f83011685010191505092915050565b602081525f6108526020830184610ed1565b5f60208284031215610f21575f5ffd5b5035919050565b80356001600160a01b0381168114610f3e575f5ffd5b919050565b5f5f60408385031215610f54575f5ffd5b610f5d83610f28565b946020939093013593505050565b5f5f5f60608486031215610f7d575f5ffd5b610f8684610f28565b9250610f9460208501610f28565b929592945050506040919091013590565b5f5f60408385031215610fb6575f5ffd5b50508035926020909101359150565b602080825282518282018190525f918401906040840190835b818110156110055783516001600160a01b0316835260209384019390920191600101610fde565b509095945050505050565b5f60208284031215611020575f5ffd5b61085282610f28565b5f5f6040838503121561103a575f5ffd5b61104383610f28565b915060208301358015158114611057575f5ffd5b809150509250929050565b634e487b7160e01b5f52604160045260245ffd5b5f5f67ffffffffffffffff84111561109057611090611062565b50604051601f19601f85018116603f0116810181811067ffffffffffffffff821117156110bf576110bf611062565b6040528381529050808284018510156110d6575f5ffd5b838360208301375f60208583010152509392505050565b5f5f5f5f60808587031215611100575f5ffd5b61110985610f28565b935061111760208601610f28565b925060408501359150606085013567ffffffffffffffff811115611139575f5ffd5b8501601f81018713611149575f5ffd5b61115887823560208401611076565b91505092959194509250565b5f5f60408385031215611175575f5ffd5b61117e83610f28565b9150602083013567ffffffffffffffff811115611199575f5ffd5b8301601f810185136111a9575f5ffd5b6111b885823560208401611076565b9150509250929050565b5f5f604083850312156111d3575f5ffd5b6111dc83610f28565b91506111ea60208401610f28565b90509250929050565b600181811c9082168061120757607f821691505b60208210810361122557634e487b7160e01b5f52602260045260245ffd5b50919050565b634e487b7160e01b5f52601160045260245ffd5b80820281158282048414176102e6576102e661122b565b5f8261127057634e487b7160e01b5f52601260045260245ffd5b500490565b5f600182016112865761128661122b565b5060010190565b601f8211156104dc57805f5260205f20601f840160051c810160208510156112b25750805b601f840160051c820191505b81811015610a96575f81556001016112be565b815167ffffffffffffffff8111156112eb576112eb611062565b6112ff816112f984546111f3565b8461128d565b6020601f821160018114611331575f831561131a5750848201515b5f19600385901b1c1916600184901b178455610a96565b5f84815260208120601f198516915b828110156113605787850151825560209485019460019092019101611340565b508482101561137d57868401515f19600387901b60f8161c191681555b50505050600190811b01905550565b6001600160a01b03858116825284166020820152604081018390526080606082018190525f906113be90830184610ed1565b9695505050505050565b5f602082840312156113d8575f5ffd5b815161085281610ea156fea2646970667358221220713c0687a90262cb243bd4a257dc26f0e16aa7cef098c33c2e8d89994c340d7f64736f6c634300081c0033",
  "linkReferences": {},
  "deployedLinkReferences": {},
  "immutableReferences": {},
  "inputSourceName": "project/contracts/CandidateNFT.sol",
  "buildInfoId": "solc-0_8_28-c0f0452abfd23746ace6d58a17dd076725446082"
}