{
  "_format": "hh3-artifact-1",
  "contractName": "Voting",
  "sourceName": "contracts/Voting.sol",
  "abi": [
    {
      "inputs": [
        {
          "internalType": "address",
          "name": "balAddress",
          "type": "address"
        },
        {
          "internalType": "uint256",
          "name": "rewardPerVote",
          "type": "uint256"
        }
      ],
      "stateMutability": "nonpayable",
      "type": "constructor"
    },
    {
      "inputs": [],
      "name": "AlreadyVoted",
      "type": "error"
    },
    {
      "inputs": [
        {
          "internalType": "uint64",
          "name": "start",
          "type": "uint64"
        },
        {
          "internalType": "uint64",
          "name": "end",
          "type": "uint64"
        }
      ],
      "name": "BadWindow",
      "type": "error"
    },
    {
      "inputs": [
        {
          "internalType": "uint256",
          "name": "candidateId",
          "type": "uint256"
        }
      ],
      "name": "InvalidCandidate",
      "type": "error"
    },
    {
      "inputs": [],
      "name": "InvalidProof",
      "type": "error"
    },
    {
      "inputs": [
        {
          "internalType": "address",
          "name": "owner",
          "type": "address"
        }
      ],
      "name": "OwnableInvalidOwner",
      "type": "error"
    },
    {
      "inputs": [
        {
          "internalType": "address",
          "name": "account",
          "type": "address"
        }
      ],
      "name": "OwnableUnauthorizedAccount",
      "type": "error"
    },
    {
      "inputs": [],
      "name": "ReentrancyGuardReentrantCall",
      "type": "error"
    },
    {
      "inputs": [],
      "name": "VotingClosed",
      "type": "error"
    },
    {
      "inputs": [],
      "name": "WindowNotSet",
      "type": "error"
    },
    {
      "inputs": [],
      "name": "ZeroAddress",
      "type": "error"
    },
    {
      "inputs": [],
      "name": "ZeroLengthCandidates",
      "type": "error"
    },
    {
      "anonymous": false,
      "inputs": [
        {
          "indexed": false,
          "internalType": "string[]",
          "name": "names",
          "type": "string[]"
        }
      ],
      "name": "CandidatesSet",
      "type": "event"
    },
    {
      "anonymous": false,
      "inputs": [
        {
          "indexed": false,
          "internalType": "bytes32",
          "name": "root",
          "type": "bytes32"
        }
      ],
      "name": "MerkleRootSet",
      "type": "event"
    },
    {
      "anonymous": false,
      "inputs": [
        {
          "indexed": true,
          "internalType": "address",
          "name": "previousOwner",
          "type": "address"
        },
        {
          "indexed": true,
          "internalType": "address",
          "name": "newOwner",
          "type": "address"
        }
      ],
      "name": "OwnershipTransferred",
      "type": "event"
    },
    {
      "anonymous": false,
      "inputs": [
        {
          "indexed": true,
          "internalType": "address",
          "name": "to",
          "type": "address"
        },
        {
          "indexed": false,
          "internalType": "uint256",
          "name": "amount",
          "type": "uint256"
        }
      ],
      "name": "RewardMinted",
      "type": "event"
    },
    {
      "anonymous": false,
      "inputs": [
        {
          "indexed": true,
          "internalType": "address",
          "name": "voter",
          "type": "address"
        },
        {
          "indexed": true,
          "internalType": "uint256",
          "name": "candidateId",
          "type": "uint256"
        }
      ],
      "name": "Voted",
      "type": "event"
    },
    {
      "anonymous": false,
      "inputs": [
        {
          "indexed": false,
          "internalType": "uint64",
          "name": "start",
          "type": "uint64"
        },
        {
          "indexed": false,
          "internalType": "uint64",
          "name": "end",
          "type": "uint64"
        }
      ],
      "name": "WindowSet",
      "type": "event"
    },
    {
      "inputs": [],
      "name": "balToken",
      "outputs": [
        {
          "internalType": "contract IBALToken",
          "name": "",
          "type": "address"
        }
      ],
      "stateMutability": "view",
      "type": "function"
    },
    {
      "inputs": [],
      "name": "candidateCount",
      "outputs": [
        {
          "internalType": "uint256",
          "name": "",
          "type": "uint256"
        }
      ],
      "stateMutability": "view",
      "type": "function"
    },
    {
      "inputs": [],
      "name": "end",
      "outputs": [
        {
          "internalType": "uint64",
          "name": "",
          "type": "uint64"
        }
      ],
      "stateMutability": "view",
      "type": "function"
    },
    {
      "inputs": [
        {
          "internalType": "uint256",
          "name": "candidateId",
          "type": "uint256"
        }
      ],
      "name": "getCandidate",
      "outputs": [
        {
          "internalType": "string",
          "name": "",
          "type": "string"
        }
      ],
      "stateMutability": "view",
      "type": "function"
    },
    {
      "inputs": [],
      "name": "getCandidates",
      "outputs": [
        {
          "internalType": "string[]",
          "name": "",
          "type": "string[]"
        }
      ],
      "stateMutability": "view",
      "type": "function"
    },
    {
      "inputs": [],
      "name": "getWindow",
      "outputs": [
        {
          "internalType": "uint64",
          "name": "",
          "type": "uint64"
        },
        {
          "internalType": "uint64",
          "name": "",
          "type": "uint64"
        }
      ],
      "stateMutability": "view",
      "type": "function"
    },
    {
      "inputs": [
        {
          "internalType": "address",
          "name": "",
          "type": "address"
        }
      ],
      "name": "hasVoted",
      "outputs": [
        {
          "internalType": "bool",
          "name": "",
          "type": "bool"
        }
      ],
      "stateMutability": "view",
      "type": "function"
    },
    {
      "inputs": [],
      "name": "owner",
      "outputs": [
        {
          "internalType": "address",
          "name": "",
          "type": "address"
        }
      ],
      "stateMutability": "view",
      "type": "function"
    },
    {
      "inputs": [],
      "name": "renounceOwnership",
      "outputs": [],
      "stateMutability": "nonpayable",
      "type": "function"
    },
    {
      "inputs": [],
      "name": "rewardAmount",
      "outputs": [
        {
          "internalType": "uint256",
          "name": "",
          "type": "uint256"
        }
      ],
      "stateMutability": "view",
      "type": "function"
    },
    {
      "inputs": [
        {
          "internalType": "string[]",
          "name": "names",
          "type": "string[]"
        }
      ],
      "name": "setCandidates",
      "outputs": [],
      "stateMutability": "nonpayable",
      "type": "function"
    },
    {
      "inputs": [
        {
          "internalType": "bytes32",
          "name": "root",
          "type": "bytes32"
        }
      ],
      "name": "setMerkleRoot",
      "outputs": [],
      "stateMutability": "nonpayable",
      "type": "function"
    },
    {
      "inputs": [
        {
          "internalType": "uint64",
          "name": "start_",
          "type": "uint64"
        },
        {
          "internalType": "uint64",
          "name": "end_",
          "type": "uint64"
        }
      ],
      "name": "setWindow",
      "outputs": [],
      "stateMutability": "nonpayable",
      "type": "function"
    },
    {
      "inputs": [],
      "name": "start",
      "outputs": [
        {
          "internalType": "uint64",
          "name": "",
          "type": "uint64"
        }
      ],
      "stateMutability": "view",
      "type": "function"
    },
    {
      "inputs": [
        {
          "internalType": "address",
          "name": "newOwner",
          "type": "address"
        }
      ],
      "name": "transferOwnership",
      "outputs": [],
      "stateMutability": "nonpayable",
      "type": "function"
    },
    {
      "inputs": [
        {
          "internalType": "uint256",
          "name": "candidateId",
          "type": "uint256"
        },
        {
          "internalType": "bytes32[]",
          "name": "proof",
          "type": "bytes32[]"
        }
      ],
      "name": "vote",
      "outputs": [],
      "stateMutability": "nonpayable",
      "type": "function"
    },
    {
      "inputs": [],
      "name": "voterRoot",
      "outputs": [
        {
          "internalType": "bytes32",
          "name": "",
          "type": "bytes32"
        }
      ],
      "stateMutability": "view",
      "type": "function"
    }
  ],
  "bytecode": "0x60c060405234801561000f575f5ffd5b5060405161114f38038061114f83398101604081905261002e916100ed565b338061005357604051631e4fbdf760e01b81525f600482015260240160405180910390fd5b61005c8161009e565b50600180556001600160a01b0382166100885760405163d92e233d60e01b815260040160405180910390fd5b6001600160a01b0390911660805260a052610124565b5f80546001600160a01b038381166001600160a01b0319831681178455604051919092169283917f8be0079c531659141344cd1fd0a4f28419497f9722a3daafe3b4186f6b6457e09190a35050565b5f5f604083850312156100fe575f5ffd5b82516001600160a01b0381168114610114575f5ffd5b6020939093015192949293505050565b60805160a051610fee6101615f395f81816102b20152818161085d01528181610896015261091e01525f81816101d101526108bc0152610fee5ff3fe608060405234801561000f575f5ffd5b5060043610610106575f3560e01c8063715018a61161009e578063be9a65551161006e578063be9a655514610255578063efbe1c1c14610280578063f2fde38b1461029a578063f7b2a7be146102ad578063fd27419b146102d4575f5ffd5b8063715018a6146102225780637cb647591461022a5780638da5cb5b1461023d578063a9a981a31461024d575f5ffd5b80631d80051d116100d95780631d80051d1461018257806335b8e820146101ac57806338d54645146101cc5780636c03572f1461020b575f5ffd5b806306a49fce1461010a57806309eef43e146101285780630a57fcb21461015a57806314e745d91461016f575b5f5ffd5b6101126102e7565b60405161011f9190610b82565b60405180910390f35b61014a610136366004610be5565b60056020525f908152604090205460ff1681565b604051901515815260200161011f565b61016d610168366004610c26565b6103bb565b005b61016d61017d366004610c9e565b610481565b600254604080516001600160401b038084168252600160401b90930490921660208301520161011f565b6101bf6101ba366004610cdc565b61053f565b60405161011f9190610cf3565b6101f37f000000000000000000000000000000000000000000000000000000000000000081565b6040516001600160a01b03909116815260200161011f565b61021460035481565b60405190815260200161011f565b61016d610610565b61016d610238366004610cdc565b610623565b5f546001600160a01b03166101f3565b600454610214565b600254610268906001600160401b031681565b6040516001600160401b03909116815260200161011f565b60025461026890600160401b90046001600160401b031681565b61016d6102a8366004610be5565b610684565b6102147f000000000000000000000000000000000000000000000000000000000000000081565b61016d6102e2366004610d05565b6106c1565b60606004805480602002602001604051908101604052809291908181526020015f905b828210156103b2578382905f5260205f2001805461032790610d4c565b80601f016020809104026020016040519081016040528092919081815260200182805461035390610d4c565b801561039e5780601f106103755761010080835404028352916020019161039e565b820191905f5260205f20905b81548152906001019060200180831161038157829003601f168201915b50505050508152602001906001019061030a565b50505050905090565b6103c36109ac565b816001600160401b0316816001600160401b03161161040d5760405163d389761b60e01b81526001600160401b038084166004830152821660248201526044015b60405180910390fd5b600280546001600160401b038481166fffffffffffffffffffffffffffffffff199092168217600160401b918516918202179092556040805191825260208201929092527f2d40db98ab36460f216e9af1035ea46823a120e5c8e83ddbe1878d21cff71b6e91015b60405180910390a15050565b6104896109ac565b5f8190036104aa57604051631def5b6560e31b815260040160405180910390fd5b6104b560045f610ad7565b5f5b8181101561050d5760048383838181106104d3576104d3610d84565b90506020028101906104e59190610d98565b82546001810184555f9384526020909320909201916105049183610e39565b506001016104b7565b507fa952e3c6144635fac7ea60dc1b7ae16dd42aa94e258f879c17e7705c3bfa1b418282604051610475929190610f1a565b600454606090821061056757604051630b81c1a160e21b815260048101839052602401610404565b6004828154811061057a5761057a610d84565b905f5260205f2001805461058d90610d4c565b80601f01602080910402602001604051908101604052809291908181526020018280546105b990610d4c565b80156106045780601f106105db57610100808354040283529160200191610604565b820191905f5260205f20905b8154815290600101906020018083116105e757829003601f168201915b50505050509050919050565b6106186109ac565b6106215f6109d8565b565b61062b6109ac565b80610649576040516309bde33960e01b815260040160405180910390fd5b60038190556040518181527f42cbc405e4dbf1b691e85b9a34b08ecfcf7a9ad9078bf4d645ccfa1fac11c10b9060200160405180910390a150565b61068c6109ac565b6001600160a01b0381166106b557604051631e4fbdf760e01b81525f6004820152602401610404565b6106be816109d8565b50565b6106c9610a27565b6002546001600160401b03161580156106f25750600254600160401b90046001600160401b0316155b1561071057604051633468ac8b60e11b815260040160405180910390fd5b6002546001600160401b031642108061073a5750600254600160401b90046001600160401b031642115b156107585760405163335b65a560e11b815260040160405180910390fd5b335f9081526005602052604090205460ff161561078857604051637c9a1cf960e01b815260040160405180910390fd5b60045483106107ad57604051630b81c1a160e21b815260048101849052602401610404565b6040516bffffffffffffffffffffffff193360601b1660208201525f906034016040516020818303038152906040528051906020012090506108258383808060200260200160405190810160405280939291908181526020018383602002808284375f92019190915250506003549150849050610a51565b610842576040516309bde33960e01b815260040160405180910390fd5b335f908152600560205260409020805460ff191660011790557f000000000000000000000000000000000000000000000000000000000000000015610971576040516340c10f1960e01b81523360048201527f000000000000000000000000000000000000000000000000000000000000000060248201527f00000000000000000000000000000000000000000000000000000000000000006001600160a01b0316906340c10f19906044015f604051808303815f87803b158015610905575f5ffd5b505af1158015610917573d5f5f3e3d5ffd5b50506040517f000000000000000000000000000000000000000000000000000000000000000081523392507fe8ea3d4dd0a2eaaf3f7532ad391255544f8a4bcf78f850bbff61d5bac9f77552915060200160405180910390a25b604051849033907f4d99b957a2bc29a30ebd96a7be8e68fe50a3c701db28a91436490b7d53870ca4905f90a3506109a760018055565b505050565b5f546001600160a01b031633146106215760405163118cdaa760e01b8152336004820152602401610404565b5f80546001600160a01b038381166001600160a01b0319831681178455604051919092169283917f8be0079c531659141344cd1fd0a4f28419497f9722a3daafe3b4186f6b6457e09190a35050565b600260015403610a4a57604051633ee5aeb560e01b815260040160405180910390fd5b6002600155565b5f82610a5d8584610a66565b14949350505050565b5f81815b8451811015610aa057610a9682868381518110610a8957610a89610d84565b6020026020010151610aa8565b9150600101610a6a565b509392505050565b5f818310610ac2575f828152602084905260409020610ad0565b5f8381526020839052604090205b9392505050565b5080545f8255905f5260205f20908101906106be91905b80821115610b0a575f610b018282610b0e565b50600101610aee565b5090565b508054610b1a90610d4c565b5f825580601f10610b29575050565b601f0160209004905f5260205f20908101906106be91905b80821115610b0a575f8155600101610b41565b5f81518084528060208401602086015e5f602082860101526020601f19601f83011685010191505092915050565b5f602082016020835280845180835260408501915060408160051b8601019250602086015f5b82811015610bd957603f19878603018452610bc4858351610b54565b94506020938401939190910190600101610ba8565b50929695505050505050565b5f60208284031215610bf5575f5ffd5b81356001600160a01b0381168114610ad0575f5ffd5b80356001600160401b0381168114610c21575f5ffd5b919050565b5f5f60408385031215610c37575f5ffd5b610c4083610c0b565b9150610c4e60208401610c0b565b90509250929050565b5f5f83601f840112610c67575f5ffd5b5081356001600160401b03811115610c7d575f5ffd5b6020830191508360208260051b8501011115610c97575f5ffd5b9250929050565b5f5f60208385031215610caf575f5ffd5b82356001600160401b03811115610cc4575f5ffd5b610cd085828601610c57565b90969095509350505050565b5f60208284031215610cec575f5ffd5b5035919050565b602081525f610ad06020830184610b54565b5f5f5f60408486031215610d17575f5ffd5b8335925060208401356001600160401b03811115610d33575f5ffd5b610d3f86828701610c57565b9497909650939450505050565b600181811c90821680610d6057607f821691505b602082108103610d7e57634e487b7160e01b5f52602260045260245ffd5b50919050565b634e487b7160e01b5f52603260045260245ffd5b5f5f8335601e19843603018112610dad575f5ffd5b8301803591506001600160401b03821115610dc6575f5ffd5b602001915036819003821315610c97575f5ffd5b634e487b7160e01b5f52604160045260245ffd5b601f8211156109a757805f5260205f20601f840160051c81016020851015610e135750805b601f840160051c820191505b81811015610e32575f8155600101610e1f565b5050505050565b6001600160401b03831115610e5057610e50610dda565b610e6483610e5e8354610d4c565b83610dee565b5f601f841160018114610e95575f8515610e7e5750838201355b5f19600387901b1c1916600186901b178355610e32565b5f83815260208120601f198716915b82811015610ec45786850135825560209485019460019092019101610ea4565b5086821015610ee0575f1960f88860031b161c19848701351681555b505060018560011b0183555050505050565b81835281816020850137505f828201602090810191909152601f909101601f19169091010190565b602080825281018290525f6040600584901b830181019083018583601e1936839003015b87821015610fab57868503603f190184528235818112610f5c575f5ffd5b89016020810190356001600160401b03811115610f77575f5ffd5b803603821315610f85575f5ffd5b610f90878284610ef2565b96505050602083019250602084019350600182019150610f3e565b509297965050505050505056fea264697066735822122056f763ef79a83b0782e403e4a1037303c617cd4eea67f57d5c6dbbb97194160664736f6c634300081c0033",
  "linkReferences": {},
  "deployedLinkReferences": {},
  "immutableReferences": {
    "1445": [
      {
        "length": 32,
        "start": 465
      },
      {
        "length": 32,
        "start": 2236
      }
    ],
    "1447": [
      {
        "length": 32,
        "start": 690
      },
      {
        "length": 32,
        "start": 2141
      },
      {
        "length": 32,
        "start": 2198
      },
      {
        "length": 32,
        "start": 2334
      }
    ]
  },
  "inputSourceName": "project/contracts/Voting.sol",
  "buildInfoId": "solc-0_8_28-fd3e1b3171063eb6c653ae66c1df058b72614aa0"
}